{
  "transactions": [
    {
      "hash": "0x2556eeed1c611776162d7a86570765f981e147c39556bb882e318f03e39e8871",
      "transactionType": "CREATE2",
      "contractName": "TheGuildBadgeRegistry",
      "contractAddress": "0x95e2c2b0a8a7ec18dcdf0dcf6304efb6d6117e27",
      "function": null,
      "arguments": null,
      "transaction": {
        "from": "0x6cfd0753ec4da15dcb418e11e921c0665c1d1cbf",
        "to": "0x4e59b44847b379578588920ca78fbf26c0b4956c",
        "gas": "0xacb74",
        "value": "0x0",
        "input": "0x0000000000000000000000000000000000000000000000000000000000000001608060405234801561000f575f80fd5b506107cc8061001d5f395ff3fe608060405234801561000f575f80fd5b5060043610610055575f3560e01c80633580dbc71461005957806338a699a41461007557806377002fcf146100a557806381407b1b146100d7578063a490a69714610107575b5f80fd5b610073600480360381019061006e9190610499565b610125565b005b61008f600480360381019061008a91906104d7565b610309565b60405161009c919061051c565b60405180910390f35b6100bf60048036038101906100ba91906104d7565b61032f565b6040516100ce93929190610583565b60405180910390f35b6100f160048036038101906100ec91906105eb565b610431565b6040516100fe9190610616565b60405180910390f35b61010f610456565b60405161011c919061063e565b60405180910390f35b5f801b8203610169576040517f08c379a0000000000000000000000000000000000000000000000000000000008152600401610160906106b1565b60405180910390fd5b60015f8381526020019081526020015f205f9054906101000a900460ff16156101c7576040517f08c379a00000000000000000000000000000000000000000000000000000000081526004016101be90610719565b60405180910390fd5b5f60405180606001604052808481526020018381526020013373ffffffffffffffffffffffffffffffffffffffff168152509050805f808581526020019081526020015f205f820151815f0155602082015181600101556040820151816002015f6101000a81548173ffffffffffffffffffffffffffffffffffffffff021916908373ffffffffffffffffffffffffffffffffffffffff1602179055509050506001805f8581526020019081526020015f205f6101000a81548160ff021916908315150217905550600283908060018154018082558091505060019003905f5260205f20015f90919091909150553373ffffffffffffffffffffffffffffffffffffffff16837f7d648d3c718d609c93c086fd770653e10a64c5afe41e0b1b0b4bb76bba24c479846040516102fc9190610616565b60405180910390a3505050565b5f60015f8381526020019081526020015f205f9054906101000a900460ff169050919050565b5f805f60015f8581526020019081526020015f205f9054906101000a900460ff1661038f576040517f08c379a000000000000000000000000000000000000000000000000000000000815260040161038690610781565b60405180910390fd5b5f805f8681526020019081526020015f206040518060600160405290815f820154815260200160018201548152602001600282015f9054906101000a900473ffffffffffffffffffffffffffffffffffffffff1673ffffffffffffffffffffffffffffffffffffffff1673ffffffffffffffffffffffffffffffffffffffff16815250509050805f015181602001518260400151935093509350509193909250565b5f600282815481106104465761044561079f565b5b905f5260205f2001549050919050565b5f600280549050905090565b5f80fd5b5f819050919050565b61047881610466565b8114610482575f80fd5b50565b5f813590506104938161046f565b92915050565b5f80604083850312156104af576104ae610462565b5b5f6104bc85828601610485565b92505060206104cd85828601610485565b9150509250929050565b5f602082840312156104ec576104eb610462565b5b5f6104f984828501610485565b91505092915050565b5f8115159050919050565b61051681610502565b82525050565b5f60208201905061052f5f83018461050d565b92915050565b61053e81610466565b82525050565b5f73ffffffffffffffffffffffffffffffffffffffff82169050919050565b5f61056d82610544565b9050919050565b61057d81610563565b82525050565b5f6060820190506105965f830186610535565b6105a36020830185610535565b6105b06040830184610574565b949350505050565b5f819050919050565b6105ca816105b8565b81146105d4575f80fd5b50565b5f813590506105e5816105c1565b92915050565b5f60208284031215610600576105ff610462565b5b5f61060d848285016105d7565b91505092915050565b5f6020820190506106295f830184610535565b92915050565b610638816105b8565b82525050565b5f6020820190506106515f83018461062f565b92915050565b5f82825260208201905092915050565b7f454d5054595f4e414d45000000000000000000000000000000000000000000005f82015250565b5f61069b600a83610657565b91506106a682610667565b602082019050919050565b5f6020820190508181035f8301526106c88161068f565b9050919050565b7f4455504c49434154455f4e414d450000000000000000000000000000000000005f82015250565b5f610703600e83610657565b915061070e826106cf565b602082019050919050565b5f6020820190508181035f830152610730816106f7565b9050919050565b7f4e4f545f464f554e4400000000000000000000000000000000000000000000005f82015250565b5f61076b600983610657565b915061077682610737565b602082019050919050565b5f6020820190508181035f8301526107988161075f565b9050919050565b7f4e487b71000000000000000000000000000000000000000000000000000000005f52603260045260245ffd",
        "nonce": "0x0",
        "chainId": "0x13882"
      },
      "additionalContracts": [],
      "isFixedGasLimit": false
    },
    {
      "hash": "0x5e050de7094319d304587dc944e15866abdb608d11303ff9f4e03048dcb77461",
      "transactionType": "CALL",
      "contractName": "TheGuildBadgeRegistry",
      "contractAddress": "0x95e2c2b0a8a7ec18dcdf0dcf6304efb6d6117e27",
      "function": "createBadge(bytes32,bytes32)",
      "arguments": [
        "0x5275737400000000000000000000000000000000000000000000000000000000",
        "0x4b6e6f7720686f7720746f20636f646520696e20527573740000000000000000"
      ],
      "transaction": {
        "from": "0x6cfd0753ec4da15dcb418e11e921c0665c1d1cbf",
        "to": "0x95e2c2b0a8a7ec18dcdf0dcf6304efb6d6117e27",
        "gas": "0x35230",
        "value": "0x0",
        "input": "0x3580dbc752757374000000000000000000000000000000000000000000000000000000004b6e6f7720686f7720746f20636f646520696e20527573740000000000000000",
        "nonce": "0x1",
        "chainId": "0x13882"
      },
      "additionalContracts": [],
      "isFixedGasLimit": false
    },
    {
      "hash": "0x3ba0001d4172de35da867d806ed38d98e567ed2080d5bc7a537c9521913eaa6a",
      "transactionType": "CALL",
      "contractName": "TheGuildBadgeRegistry",
      "contractAddress": "0x95e2c2b0a8a7ec18dcdf0dcf6304efb6d6117e27",
      "function": "createBadge(bytes32,bytes32)",
      "arguments": [
        "0x536f6c6964697479000000000000000000000000000000000000000000000000",
        "0x4b6e6f7720686f7720746f20636f646520696e20536f6c696469747900000000"
      ],
      "transaction": {
        "from": "0x6cfd0753ec4da15dcb418e11e921c0665c1d1cbf",
        "to": "0x95e2c2b0a8a7ec18dcdf0dcf6304efb6d6117e27",
        "gas": "0x3230f",
        "value": "0x0",
        "input": "0x3580dbc7536f6c69646974790000000000000000000000000000000000000000000000004b6e6f7720686f7720746f20636f646520696e20536f6c696469747900000000",
        "nonce": "0x2",
        "chainId": "0x13882"
      },
      "additionalContracts": [],
      "isFixedGasLimit": false
    },
    {
      "hash": "0xcd2bf6850fc3736744ea777af72b5094eb72cbd946bb826f29ca1cf3776b4382",
      "transactionType": "CALL",
      "contractName": "TheGuildBadgeRegistry",
      "contractAddress": "0x95e2c2b0a8a7ec18dcdf0dcf6304efb6d6117e27",
      "function": "createBadge(bytes32,bytes32)",
      "arguments": [
        "0x507974686f6e0000000000000000000000000000000000000000000000000000",
        "0x4b6e6f7720686f7720746f20636f646520696e20507974686f6e000000000000"
      ],
      "transaction": {
        "from": "0x6cfd0753ec4da15dcb418e11e921c0665c1d1cbf",
        "to": "0x95e2c2b0a8a7ec18dcdf0dcf6304efb6d6117e27",
        "gas": "0x322c9",
        "value": "0x0",
        "input": "0x3580dbc7507974686f6e00000000000000000000000000000000000000000000000000004b6e6f7720686f7720746f20636f646520696e20507974686f6e000000000000",
        "nonce": "0x3",
        "chainId": "0x13882"
      },
      "additionalContracts": [],
      "isFixedGasLimit": false
    },
    {
      "hash": "0x3b0425dec4781262c5cf18dddb6a90a4d82a47ee9c575931909dc0c1369b67ac",
      "transactionType": "CALL",
      "contractName": "TheGuildBadgeRegistry",
      "contractAddress": "0x95e2c2b0a8a7ec18dcdf0dcf6304efb6d6117e27",
      "function": "createBadge(bytes32,bytes32)",
      "arguments": [
        "0x4a61766153637269707400000000000000000000000000000000000000000000",
        "0x4b6e6f7720686f7720746f20636f646520696e204a6176615363726970740000"
      ],
      "transaction": {
        "from": "0x6cfd0753ec4da15dcb418e11e921c0665c1d1cbf",
        "to": "0x95e2c2b0a8a7ec18dcdf0dcf6304efb6d6117e27",
        "gas": "0x32355",
        "value": "0x0",
        "input": "0x3580dbc74a617661536372697074000000000000000000000000000000000000000000004b6e6f7720686f7720746f20636f646520696e204a6176615363726970740000",
        "nonce": "0x4",
        "chainId": "0x13882"
      },
      "additionalContracts": [],
      "isFixedGasLimit": false
    },
    {
      "hash": "0x58a4a6e91df728b0fd0ca749686050372956fce5796ed67a6b951d80329d3f86",
      "transactionType": "CALL",
      "contractName": "TheGuildBadgeRegistry",
      "contractAddress": "0x95e2c2b0a8a7ec18dcdf0dcf6304efb6d6117e27",
      "function": "createBadge(bytes32,bytes32)",
      "arguments": [
        "0x5479706553637269707400000000000000000000000000000000000000000000",
        "0x4b6e6f7720686f7720746f20636f646520696e20547970655363726970740000"
      ],
      "transaction": {
        "from": "0x6cfd0753ec4da15dcb418e11e921c0665c1d1cbf",
        "to": "0x95e2c2b0a8a7ec18dcdf0dcf6304efb6d6117e27",
        "gas": "0x32355",
        "value": "0x0",
        "input": "0x3580dbc754797065536372697074000000000000000000000000000000000000000000004b6e6f7720686f7720746f20636f646520696e20547970655363726970740000",
        "nonce": "0x5",
        "chainId": "0x13882"
      },
      "additionalContracts": [],
      "isFixedGasLimit": false
    },
    {
      "hash": "0x7b80f2b6215152f98c1b3c632d0629080a21c0eab812d8c9a33b076c5dbe763d",
      "transactionType": "CALL",
      "contractName": "TheGuildBadgeRegistry",
      "contractAddress": "0x95e2c2b0a8a7ec18dcdf0dcf6304efb6d6117e27",
      "function": "createBadge(bytes32,bytes32)",
      "arguments": [
        "0x5265616374000000000000000000000000000000000000000000000000000000",
        "0x4b6e6f7720686f7720746f20636f646520696e20526561637400000000000000"
      ],
      "transaction": {
        "from": "0x6cfd0753ec4da15dcb418e11e921c0665c1d1cbf",
        "to": "0x95e2c2b0a8a7ec18dcdf0dcf6304efb6d6117e27",
        "gas": "0x322a6",
        "value": "0x0",
        "input": "0x3580dbc752656163740000000000000000000000000000000000000000000000000000004b6e6f7720686f7720746f20636f646520696e20526561637400000000000000",
        "nonce": "0x6",
        "chainId": "0x13882"
      },
      "additionalContracts": [],
      "isFixedGasLimit": false
    },
    {
      "hash": "0xf91c874a3071f54be958dc99ef4efd2904302e5cf88fc275744792e12e129fe8",
      "transactionType": "CALL",
      "contractName": "TheGuildBadgeRegistry",
      "contractAddress": "0x95e2c2b0a8a7ec18dcdf0dcf6304efb6d6117e27",
      "function": "createBadge(bytes32,bytes32)",
      "arguments": [
        "0x4e6578742e6a7300000000000000000000000000000000000000000000000000",
        "0x4b6e6f7720686f7720746f20636f646520696e204e6578742e6a730000000000"
      ],
      "transaction": {
        "from": "0x6cfd0753ec4da15dcb418e11e921c0665c1d1cbf",
        "to": "0x95e2c2b0a8a7ec18dcdf0dcf6304efb6d6117e27",
        "gas": "0x322ec",
        "value": "0x0",
        "input": "0x3580dbc74e6578742e6a73000000000000000000000000000000000000000000000000004b6e6f7720686f7720746f20636f646520696e204e6578742e6a730000000000",
        "nonce": "0x7",
        "chainId": "0x13882"
      },
      "additionalContracts": [],
      "isFixedGasLimit": false
    }
  ],
  "receipts": [
    {
      "status": "0x1",
      "cumulativeGasUsed": "0x7618b",
      "logs": [
        {
          "address": "0x0000000000000000000000000000000000001010",
          "topics": [
            "0x4dfe1bbbcf077ddc3e01291eea2d5c70c2b422b415d95645b9adcfd678cb1d63",
            "0x0000000000000000000000000000000000000000000000000000000000001010",
            "0x0000000000000000000000006cfd0753ec4da15dcb418e11e921c0665c1d1cbf",
            "0x00000000000000000000000009207a6efee346cb3e4a54ac18523e3715d38b3f"
          ],
          "data": "0x0000000000000000000000000000000000000000000000000044d0fcdd9bcd9d0000000000000000000000000000000000000000000000056d2aa3a5c09a00000000000000000000000000000000000000000000000009bfd1d9de88a20008240000000000000000000000000000000000000000000000056ce5d2a8e2fe32630000000000000000000000000000000000000000000009bfd21eaf857f9bd5c1",
          "blockHash": "0x461786cc2dd8213191b9ae8d44dadbc25bf97bc854ef2f90776c29e712bd4588",
          "blockNumber": "0x190e0ba",
          "transactionHash": "0x2556eeed1c611776162d7a86570765f981e147c39556bb882e318f03e39e8871",
          "transactionIndex": "0x0",
          "logIndex": "0x0",
          "removed": false
        }
      ],
      "logsBloom": "0x00000000000000000000000000000000000000000000000000000000000000000000000000000000000000010000000000008000000000000000010000000000000000000000000000000000000000800000000000000000000100000000000000000000000000000000000000000000000000000000000080000000000000000000000000000000000000000000000000004000000100000000000000000000200000000000000000000000000000000000000000000000000000000000004000000000000000000001000000000000000000000000000000300000000000000000000000000000000000010000000000000000000000000000000000100000",
      "type": "0x2",
      "transactionHash": "0x2556eeed1c611776162d7a86570765f981e147c39556bb882e318f03e39e8871",
      "transactionIndex": "0x0",
      "blockHash": "0x461786cc2dd8213191b9ae8d44dadbc25bf97bc854ef2f90776c29e712bd4588",
      "blockNumber": "0x190e0ba",
      "gasUsed": "0x7618b",
      "effectiveGasPrice": "0x952cb22b6",
      "from": "0x6cfd0753ec4da15dcb418e11e921c0665c1d1cbf",
      "to": "0x4e59b44847b379578588920ca78fbf26c0b4956c",
      "contractAddress": "0x95e2c2b0a8a7ec18dcdf0dcf6304efb6d6117e27"
    },
    {
      "status": "0x1",
      "cumulativeGasUsed": "0x9c911",
      "logs": [
        {
          "address": "0x95e2c2b0a8a7ec18dcdf0dcf6304efb6d6117e27",
          "topics": [
            "0x7d648d3c718d609c93c086fd770653e10a64c5afe41e0b1b0b4bb76bba24c479",
            "0x5275737400000000000000000000000000000000000000000000000000000000",
            "0x0000000000000000000000006cfd0753ec4da15dcb418e11e921c0665c1d1cbf"
          ],
          "data": "0x4b6e6f7720686f7720746f20636f646520696e20527573740000000000000000",
          "blockHash": "0x461786cc2dd8213191b9ae8d44dadbc25bf97bc854ef2f90776c29e712bd4588",
          "blockNumber": "0x190e0ba",
          "transactionHash": "0x5e050de7094319d304587dc944e15866abdb608d11303ff9f4e03048dcb77461",
          "transactionIndex": "0x1",
          "logIndex": "0x1",
          "removed": false
        },
        {
          "address": "0x0000000000000000000000000000000000001010",
          "topics": [
            "0x4dfe1bbbcf077ddc3e01291eea2d5c70c2b422b415d95645b9adcfd678cb1d63",
            "0x0000000000000000000000000000000000000000000000000000000000001010",
            "0x0000000000000000000000006cfd0753ec4da15dcb418e11e921c0665c1d1cbf",
            "0x00000000000000000000000009207a6efee346cb3e4a54ac18523e3715d38b3f"
          ],
          "data": "0x00000000000000000000000000000000000000000000000000166ac7561feb4a0000000000000000000000000000000000000000000000056ce5d2a8e12d312e0000000000000000000000000000000000000000000009bfd21eaf857f9bd5c10000000000000000000000000000000000000000000000056ccf67e18b0d45e40000000000000000000000000000000000000000000009bfd2351a4cd5bbc10b",
          "blockHash": "0x461786cc2dd8213191b9ae8d44dadbc25bf97bc854ef2f90776c29e712bd4588",
          "blockNumber": "0x190e0ba",
          "transactionHash": "0x5e050de7094319d304587dc944e15866abdb608d11303ff9f4e03048dcb77461",
          "transactionIndex": "0x1",
          "logIndex": "0x2",
          "removed": false
        }
      ],
      "logsBloom": "0x00000000000000000000000000000200000000000000000000000000000000000000000000000000000000010000000000008000000000000000010000000000000000000000000000000000000000800000000000000000000100000001000000000000000000000000000020000000000000000000200080000000000000000001000000000000000000000000000000004000000100000000000000000000200000000000000000000000000000000000000000000000000000000000004000000000000000000201000000000000000008000000000000300000000000400000000040000000000000010000000000000000000000000000000000100000",
      "type": "0x2",
      "transactionHash": "0x5e050de7094319d304587dc944e15866abdb608d11303ff9f4e03048dcb77461",
      "transactionIndex": "0x1",
      "blockHash": "0x461786cc2dd8213191b9ae8d44dadbc25bf97bc854ef2f90776c29e712bd4588",
      "blockNumber": "0x190e0ba",
      "gasUsed": "0x26786",
      "effectiveGasPrice": "0x952cb22b6",
      "from": "0x6cfd0753ec4da15dcb418e11e921c0665c1d1cbf",
      "to": "0x95e2c2b0a8a7ec18dcdf0dcf6304efb6d6117e27",
      "contractAddress": null
    },
    {
      "status": "0x1",
      "cumulativeGasUsed": "0xbee2b",
      "logs": [
        {
          "address": "0x95e2c2b0a8a7ec18dcdf0dcf6304efb6d6117e27",
          "topics": [
            "0x7d648d3c718d609c93c086fd770653e10a64c5afe41e0b1b0b4bb76bba24c479",
            "0x536f6c6964697479000000000000000000000000000000000000000000000000",
            "0x0000000000000000000000006cfd0753ec4da15dcb418e11e921c0665c1d1cbf"
          ],
          "data": "0x4b6e6f7720686f7720746f20636f646520696e20536f6c696469747900000000",
          "blockHash": "0x461786cc2dd8213191b9ae8d44dadbc25bf97bc854ef2f90776c29e712bd4588",
          "blockNumber": "0x190e0ba",
          "transactionHash": "0x3ba0001d4172de35da867d806ed38d98e567ed2080d5bc7a537c9521913eaa6a",
          "transactionIndex": "0x2",
          "logIndex": "0x3",
          "removed": false
        },
        {
          "address": "0x0000000000000000000000000000000000001010",
          "topics": [
            "0x4dfe1bbbcf077ddc3e01291eea2d5c70c2b422b415d95645b9adcfd678cb1d63",
            "0x0000000000000000000000000000000000000000000000000000000000001010",
            "0x0000000000000000000000006cfd0753ec4da15dcb418e11e921c0665c1d1cbf",
            "0x00000000000000000000000009207a6efee346cb3e4a54ac18523e3715d38b3f"
          ],
          "data": "0x0000000000000000000000000000000000000000000000000013ff80098ab3160000000000000000000000000000000000000000000000056ccf67e18a75cbea0000000000000000000000000000000000000000000009bfd2351a4cd5bbc10b0000000000000000000000000000000000000000000000056cbb686180eb18d40000000000000000000000000000000000000000000009bfd24919ccdf467421",
          "blockHash": "0x461786cc2dd8213191b9ae8d44dadbc25bf97bc854ef2f90776c29e712bd4588",
          "blockNumber": "0x190e0ba",
          "transactionHash": "0x3ba0001d4172de35da867d806ed38d98e567ed2080d5bc7a537c9521913eaa6a",
          "transactionIndex": "0x2",
          "logIndex": "0x4",
          "removed": false
        }
      ],
      "logsBloom": "0x00000000008000000000000000000200000000000000000000000000000000000000000000000000000000010000000000008000000000000000010000000000000000000000000000000000000000800000000000000000000100000000000000000000000000000000000000000000000000000000200080000000000000000001000000000000000000000000000000004000000100000000000000000000200000000000000000000000000000000000000000000000000040000000004000000000000000000201000000000000000000000000000000300000000000400000040040000000000000010000000000000000000000000000000000100000",
      "type": "0x2",
      "transactionHash": "0x3ba0001d4172de35da867d806ed38d98e567ed2080d5bc7a537c9521913eaa6a",
      "transactionIndex": "0x2",
      "blockHash": "0x461786cc2dd8213191b9ae8d44dadbc25bf97bc854ef2f90776c29e712bd4588",
      "blockNumber": "0x190e0ba",
      "gasUsed": "0x2251a",
      "effectiveGasPrice": "0x952cb22b6",
      "from": "0x6cfd0753ec4da15dcb418e11e921c0665c1d1cbf",
      "to": "0x95e2c2b0a8a7ec18dcdf0dcf6304efb6d6117e27",
      "contractAddress": null
    },
    {
      "status": "0x1",
      "cumulativeGasUsed": "0xe1315",
      "logs": [
        {
          "address": "0x95e2c2b0a8a7ec18dcdf0dcf6304efb6d6117e27",
          "topics": [
            "0x7d648d3c718d609c93c086fd770653e10a64c5afe41e0b1b0b4bb76bba24c479",
            "0x507974686f6e0000000000000000000000000000000000000000000000000000",
            "0x0000000000000000000000006cfd0753ec4da15dcb418e11e921c0665c1d1cbf"
          ],
          "data": "0x4b6e6f7720686f7720746f20636f646520696e20507974686f6e000000000000",
          "blockHash": "0x461786cc2dd8213191b9ae8d44dadbc25bf97bc854ef2f90776c29e712bd4588",
          "blockNumber": "0x190e0ba",
          "transactionHash": "0xcd2bf6850fc3736744ea777af72b5094eb72cbd946bb826f29ca1cf3776b4382",
          "transactionIndex": "0x3",
          "logIndex": "0x5",
          "removed": false
        },
        {
          "address": "0x0000000000000000000000000000000000001010",
          "topics": [
            "0x4dfe1bbbcf077ddc3e01291eea2d5c70c2b422b415d95645b9adcfd678cb1d63",
            "0x0000000000000000000000000000000000000000000000000000000000001010",
            "0x0000000000000000000000006cfd0753ec4da15dcb418e11e921c0665c1d1cbf",
            "0x00000000000000000000000009207a6efee346cb3e4a54ac18523e3715d38b3f"
          ],
          "data": "0x0000000000000000000000000000000000000000000000000013fdc083743cc60000000000000000000000000000000000000000000000056cbb68618063f76e0000000000000000000000000000000000000000000009bfd24919ccdf4674210000000000000000000000000000000000000000000000056ca76aa0fcefbaa80000000000000000000000000000000000000000000009bfd25d178d62bab0e7",
          "blockHash": "0x461786cc2dd8213191b9ae8d44dadbc25bf97bc854ef2f90776c29e712bd4588",
          "blockNumber": "0x190e0ba",
          "transactionHash": "0xcd2bf6850fc3736744ea777af72b5094eb72cbd946bb826f29ca1cf3776b4382",
          "transactionIndex": "0x3",
          "logIndex": "0x6",
          "removed": false
        }
      ],
      "logsBloom": "0x00000000000000000000000000000200000000000000000000000000000000000000000000000000000000010000000000008000000000000000010000000000000000000000000000000000000000800000000001000000000100000000000000000000000000000000000000000000100000000000200080000000000000000001000000000400000000000000000000004000000100000000000000000000200000000000000000000000000000000000000000000000000000000000004000000000000000000201000000000000000000000000000000300000000000400000000040000000000000010000000000000000000000000000000000100000",
      "type": "0x2",
      "transactionHash": "0xcd2bf6850fc3736744ea777af72b5094eb72cbd946bb826f29ca1cf3776b4382",
      "transactionIndex": "0x3",
      "blockHash": "0x461786cc2dd8213191b9ae8d44dadbc25bf97bc854ef2f90776c29e712bd4588",
      "blockNumber": "0x190e0ba",
      "gasUsed": "0x224ea",
      "effectiveGasPrice": "0x952cb22b6",
      "from": "0x6cfd0753ec4da15dcb418e11e921c0665c1d1cbf",
      "to": "0x95e2c2b0a8a7ec18dcdf0dcf6304efb6d6117e27",
      "contractAddress": null
    },
    {
      "status": "0x1",
      "cumulativeGasUsed": "0x10385f",
      "logs": [
        {
          "address": "0x95e2c2b0a8a7ec18dcdf0dcf6304efb6d6117e27",
          "topics": [
            "0x7d648d3c718d609c93c086fd770653e10a64c5afe41e0b1b0b4bb76bba24c479",
            "0x4a61766153637269707400000000000000000000000000000000000000000000",
            "0x0000000000000000000000006cfd0753ec4da15dcb418e11e921c0665c1d1cbf"
          ],
          "data": "0x4b6e6f7720686f7720746f20636f646520696e204a6176615363726970740000",
          "blockHash": "0x461786cc2dd8213191b9ae8d44dadbc25bf97bc854ef2f90776c29e712bd4588",
          "blockNumber": "0x190e0ba",
          "transactionHash": "0x3b0425dec4781262c5cf18dddb6a90a4d82a47ee9c575931909dc0c1369b67ac",
          "transactionIndex": "0x4",
          "logIndex": "0x7",
          "removed": false
        },
        {
          "address": "0x0000000000000000000000000000000000001010",
          "topics": [
            "0x4dfe1bbbcf077ddc3e01291eea2d5c70c2b422b415d95645b9adcfd678cb1d63",
            "0x0000000000000000000000000000000000000000000000000000000000001010",
            "0x0000000000000000000000006cfd0753ec4da15dcb418e11e921c0665c1d1cbf",
            "0x00000000000000000000000009207a6efee346cb3e4a54ac18523e3715d38b3f"
          ],
          "data": "0x0000000000000000000000000000000000000000000000000014013f8fa129660000000000000000000000000000000000000000000000056ca76aa0fc68a5120000000000000000000000000000000000000000000009bfd25d178d62bab0e70000000000000000000000000000000000000000000000056c9369616cc77bac0000000000000000000000000000000000000000000009bfd27118ccf25bda4d",
          "blockHash": "0x461786cc2dd8213191b9ae8d44dadbc25bf97bc854ef2f90776c29e712bd4588",
          "blockNumber": "0x190e0ba",
          "transactionHash": "0x3b0425dec4781262c5cf18dddb6a90a4d82a47ee9c575931909dc0c1369b67ac",
          "transactionIndex": "0x4",
          "logIndex": "0x8",
          "removed": false
        }
      ],
      "logsBloom": "0x00000000000000000000000000000200000000000000000000000000000000000000000000000000000000010000000000008000000000000000010000000000000000000000000000000000000000800000020000000000000100000000000000000000000000000002000000000000000800000000200080000000000000000001000000000000000000000000000000004000000100000000000000000000200000000000000000000000000000000000000000000000000000000000004000000000000000000201000000000000000000000000000000300000000000400000000040000000000000010000000000000000000000000000000000100000",
      "type": "0x2",
      "transactionHash": "0x3b0425dec4781262c5cf18dddb6a90a4d82a47ee9c575931909dc0c1369b67ac",
      "transactionIndex": "0x4",
      "blockHash": "0x461786cc2dd8213191b9ae8d44dadbc25bf97bc854ef2f90776c29e712bd4588",
      "blockNumber": "0x190e0ba",
      "gasUsed": "0x2254a",
      "effectiveGasPrice": "0x952cb22b6",
      "from": "0x6cfd0753ec4da15dcb418e11e921c0665c1d1cbf",
      "to": "0x95e2c2b0a8a7ec18dcdf0dcf6304efb6d6117e27",
      "contractAddress": null
    },
    {
      "status": "0x1",
      "cumulativeGasUsed": "0x125da9",
      "logs": [
        {
          "address": "0x95e2c2b0a8a7ec18dcdf0dcf6304efb6d6117e27",
          "topics": [
            "0x7d648d3c718d609c93c086fd770653e10a64c5afe41e0b1b0b4bb76bba24c479",
            "0x5479706553637269707400000000000000000000000000000000000000000000",
            "0x0000000000000000000000006cfd0753ec4da15dcb418e11e921c0665c1d1cbf"
          ],
          "data": "0x4b6e6f7720686f7720746f20636f646520696e20547970655363726970740000",
          "blockHash": "0x461786cc2dd8213191b9ae8d44dadbc25bf97bc854ef2f90776c29e712bd4588",
          "blockNumber": "0x190e0ba",
          "transactionHash": "0x58a4a6e91df728b0fd0ca749686050372956fce5796ed67a6b951d80329d3f86",
          "transactionIndex": "0x5",
          "logIndex": "0x9",
          "removed": false
        },
        {
          "address": "0x0000000000000000000000000000000000001010",
          "topics": [
            "0x4dfe1bbbcf077ddc3e01291eea2d5c70c2b422b415d95645b9adcfd678cb1d63",
            "0x0000000000000000000000000000000000000000000000000000000000001010",
            "0x0000000000000000000000006cfd0753ec4da15dcb418e11e921c0665c1d1cbf",
            "0x00000000000000000000000009207a6efee346cb3e4a54ac18523e3715d38b3f"
          ],
          "data": "0x0000000000000000000000000000000000000000000000000014013f8fa129660000000000000000000000000000000000000000000000056c9369616c404e760000000000000000000000000000000000000000000009bfd27118ccf25bda4d0000000000000000000000000000000000000000000000056c7f6821dc9f25100000000000000000000000000000000000000000000009bfd2851a0c81fd03b3",
          "blockHash": "0x461786cc2dd8213191b9ae8d44dadbc25bf97bc854ef2f90776c29e712bd4588",
          "blockNumber": "0x190e0ba",
          "transactionHash": "0x58a4a6e91df728b0fd0ca749686050372956fce5796ed67a6b951d80329d3f86",
          "transactionIndex": "0x5",
          "logIndex": "0xa",
          "removed": false
        }
      ],
      "logsBloom": "0x00000000000000000000000000000200000000000000000000000000000000000000000000000000000000010000000000008000000000000000010000000000000000000000000000000000000001800000000000000000000100000000000000000000000000000000000000000000002000000000200080000000000000000001000000000000000000000000000000004000000100000000000000000000200000000000000000000000000000000000000000000000000000000000004000000000000000000201000000000000000000000000004000300000000000400000000040000000000000010000000000000000000000000000000000100000",
      "type": "0x2",
      "transactionHash": "0x58a4a6e91df728b0fd0ca749686050372956fce5796ed67a6b951d80329d3f86",
      "transactionIndex": "0x5",
      "blockHash": "0x461786cc2dd8213191b9ae8d44dadbc25bf97bc854ef2f90776c29e712bd4588",
      "blockNumber": "0x190e0ba",
      "gasUsed": "0x2254a",
      "effectiveGasPrice": "0x952cb22b6",
      "from": "0x6cfd0753ec4da15dcb418e11e921c0665c1d1cbf",
      "to": "0x95e2c2b0a8a7ec18dcdf0dcf6304efb6d6117e27",
      "contractAddress": null
    },
    {
      "status": "0x1",
      "cumulativeGasUsed": "0x14827b",
      "logs": [
        {
          "address": "0x95e2c2b0a8a7ec18dcdf0dcf6304efb6d6117e27",
          "topics": [
            "0x7d648d3c718d609c93c086fd770653e10a64c5afe41e0b1b0b4bb76bba24c479",
            "0x5265616374000000000000000000000000000000000000000000000000000000",
            "0x0000000000000000000000006cfd0753ec4da15dcb418e11e921c0665c1d1cbf"
          ],
          "data": "0x4b6e6f7720686f7720746f20636f646520696e20526561637400000000000000",
          "blockHash": "0x461786cc2dd8213191b9ae8d44dadbc25bf97bc854ef2f90776c29e712bd4588",
          "blockNumber": "0x190e0ba",
          "transactionHash": "0x7b80f2b6215152f98c1b3c632d0629080a21c0eab812d8c9a33b076c5dbe763d",
          "transactionIndex": "0x6",
          "logIndex": "0xb",
          "removed": false
        },
        {
          "address": "0x0000000000000000000000000000000000001010",
          "topics": [
            "0x4dfe1bbbcf077ddc3e01291eea2d5c70c2b422b415d95645b9adcfd678cb1d63",
            "0x0000000000000000000000000000000000000000000000000000000000001010",
            "0x0000000000000000000000006cfd0753ec4da15dcb418e11e921c0665c1d1cbf",
            "0x00000000000000000000000009207a6efee346cb3e4a54ac18523e3715d38b3f"
          ],
          "data": "0x0000000000000000000000000000000000000000000000000013fce0c069019e0000000000000000000000000000000000000000000000056c7f6821dc17f7da0000000000000000000000000000000000000000000009bfd2851a0c81fd03b30000000000000000000000000000000000000000000000056c6b6b411baef63c0000000000000000000000000000000000000000000009bfd29916ed42660551",
          "blockHash": "0x461786cc2dd8213191b9ae8d44dadbc25bf97bc854ef2f90776c29e712bd4588",
          "blockNumber": "0x190e0ba",
          "transactionHash": "0x7b80f2b6215152f98c1b3c632d0629080a21c0eab812d8c9a33b076c5dbe763d",
          "transactionIndex": "0x6",
          "logIndex": "0xc",
          "removed": false
        }
      ],
      "logsBloom": "0x00000000000000000000000040000200000000000000000000000000000000000000000000000000000000010000000000008000000000000000010000000000000000000000000000000000000000800000000000000000000100000000000000000000000000000000000000000000000000000000200080000000000000000001000000000000000000000000000000004000000100000000000000000000200000000000000000000000000000000000000000000000000000000000004000000000000000000201000000000000000000000000000000301000000000400000000040000000100000010000000000000000000000000000000000100000",
      "type": "0x2",
      "transactionHash": "0x7b80f2b6215152f98c1b3c632d0629080a21c0eab812d8c9a33b076c5dbe763d",
      "transactionIndex": "0x6",
      "blockHash": "0x461786cc2dd8213191b9ae8d44dadbc25bf97bc854ef2f90776c29e712bd4588",
      "blockNumber": "0x190e0ba",
      "gasUsed": "0x224d2",
      "effectiveGasPrice": "0x952cb22b6",
      "from": "0x6cfd0753ec4da15dcb418e11e921c0665c1d1cbf",
      "to": "0x95e2c2b0a8a7ec18dcdf0dcf6304efb6d6117e27",
      "contractAddress": null
    },
    {
      "status": "0x1",
      "cumulativeGasUsed": "0x16a77d",
      "logs": [
        {
          "address": "0x95e2c2b0a8a7ec18dcdf0dcf6304efb6d6117e27",
          "topics": [
            "0x7d648d3c718d609c93c086fd770653e10a64c5afe41e0b1b0b4bb76bba24c479",
            "0x4e6578742e6a7300000000000000000000000000000000000000000000000000",
            "0x0000000000000000000000006cfd0753ec4da15dcb418e11e921c0665c1d1cbf"
          ],
          "data": "0x4b6e6f7720686f7720746f20636f646520696e204e6578742e6a730000000000",
          "blockHash": "0x461786cc2dd8213191b9ae8d44dadbc25bf97bc854ef2f90776c29e712bd4588",
          "blockNumber": "0x190e0ba",
          "transactionHash": "0xf91c874a3071f54be958dc99ef4efd2904302e5cf88fc275744792e12e129fe8",
          "transactionIndex": "0x7",
          "logIndex": "0xd",
          "removed": false
        },
        {
          "address": "0x0000000000000000000000000000000000001010",
          "topics": [
            "0x4dfe1bbbcf077ddc3e01291eea2d5c70c2b422b415d95645b9adcfd678cb1d63",
            "0x0000000000000000000000000000000000000000000000000000000000001010",
            "0x0000000000000000000000006cfd0753ec4da15dcb418e11e921c0665c1d1cbf",
            "0x00000000000000000000000009207a6efee346cb3e4a54ac18523e3715d38b3f"
          ],
          "data": "0x0000000000000000000000000000000000000000000000000013fea0467f77ee0000000000000000000000000000000000000000000000056c6b6b411b27e68e0000000000000000000000000000000000000000000009bfd29916ed426605510000000000000000000000000000000000000000000000056c576ca0d4a86ea00000000000000000000000000000000000000000000009bfd2ad158d88e57d3f",
          "blockHash": "0x461786cc2dd8213191b9ae8d44dadbc25bf97bc854ef2f90776c29e712bd4588",
          "blockNumber": "0x190e0ba",
          "transactionHash": "0xf91c874a3071f54be958dc99ef4efd2904302e5cf88fc275744792e12e129fe8",
          "transactionIndex": "0x7",
          "logIndex": "0xe",
          "removed": false
        }
      ],
      "logsBloom": "0x00000000000000000000000000000200000000000000000000000000000000000000000000000000000000010000000000008000000000000000010000000000000000000000000000000000000000800000000000008000000100000000000000000000000000000000000000000000000000000000200080000000000000000001000000000000000000000000000000004000000100000000000000000000200000000000000000000000000000000000080000000000000000000000004000000000000000000201000000000000000000000000004000300000000000400000000040000000000000010000000000000000000000000000000000100000",
      "type": "0x2",
      "transactionHash": "0xf91c874a3071f54be958dc99ef4efd2904302e5cf88fc275744792e12e129fe8",
      "transactionIndex": "0x7",
      "blockHash": "0x461786cc2dd8213191b9ae8d44dadbc25bf97bc854ef2f90776c29e712bd4588",
      "blockNumber": "0x190e0ba",
      "gasUsed": "0x22502",
      "effectiveGasPrice": "0x952cb22b6",
      "from": "0x6cfd0753ec4da15dcb418e11e921c0665c1d1cbf",
      "to": "0x95e2c2b0a8a7ec18dcdf0dcf6304efb6d6117e27",
      "contractAddress": null
    }
  ],
  "libraries": [],
  "pending": [],
  "returns": {},
  "timestamp": 1757601344319,
  "chain": 80002,
  "commit": "e036e5a"
}