{
  "transactions": [
    {
      "hash": "0xef9d70568de2281d3f3471667de3ab255534c523fcebe779a2d423720b604880",
      "transactionType": "CREATE2",
      "contractName": "TheGuildActivityToken",
      "contractAddress": "0x4649490b118389d0be8f48b8953efb235d8cb545",
      "function": null,
      "arguments": [
        "0x6cfD0753EC4da15Dcb418E11e921C0665c1d1cBf"
      ],
      "transaction": {
        "from": "0x6cfd0753ec4da15dcb418e11e921c0665c1d1cbf",
        "to": "0x4e59b44847b379578588920ca78fbf26c0b4956c",
        "gas": "0x18196d",
        "value": "0x0",
        "input": "0x7468656775696c645f765f302e312e3300000000000000000000000000000000608060405234801561000f575f5ffd5b506040516116b93803806116b983398181016040528101906100319190610267565b806040518060400160405280601581526020017f5468654775696c644163746976697479546f6b656e00000000000000000000008152506040518060400160405280600381526020017f544741000000000000000000000000000000000000000000000000000000000081525081600390816100ad91906104cf565b5080600490816100bd91906104cf565b5050505f73ffffffffffffffffffffffffffffffffffffffff168173ffffffffffffffffffffffffffffffffffffffff1603610130575f6040517f1e4fbdf700000000000000000000000000000000000000000000000000000000815260040161012791906105ad565b60405180910390fd5b61013f8161014660201b60201c565b50506105c6565b5f60055f9054906101000a900473ffffffffffffffffffffffffffffffffffffffff1690508160055f6101000a81548173ffffffffffffffffffffffffffffffffffffffff021916908373ffffffffffffffffffffffffffffffffffffffff1602179055508173ffffffffffffffffffffffffffffffffffffffff168173ffffffffffffffffffffffffffffffffffffffff167f8be0079c531659141344cd1fd0a4f28419497f9722a3daafe3b4186f6b6457e060405160405180910390a35050565b5f5ffd5b5f73ffffffffffffffffffffffffffffffffffffffff82169050919050565b5f6102368261020d565b9050919050565b6102468161022c565b8114610250575f5ffd5b50565b5f815190506102618161023d565b92915050565b5f6020828403121561027c5761027b610209565b5b5f61028984828501610253565b91505092915050565b5f81519050919050565b7f4e487b71000000000000000000000000000000000000000000000000000000005f52604160045260245ffd5b7f4e487b71000000000000000000000000000000000000000000000000000000005f52602260045260245ffd5b5f600282049050600182168061030d57607f821691505b6020821081036103205761031f6102c9565b5b50919050565b5f819050815f5260205f209050919050565b5f6020601f8301049050919050565b5f82821b905092915050565b5f600883026103827fffffffffffffffffffffffffffffffffffffffffffffffffffffffffffffffff82610347565b61038c8683610347565b95508019841693508086168417925050509392505050565b5f819050919050565b5f819050919050565b5f6103d06103cb6103c6846103a4565b6103ad565b6103a4565b9050919050565b5f819050919050565b6103e9836103b6565b6103fd6103f5826103d7565b848454610353565b825550505050565b5f5f905090565b610414610405565b61041f8184846103e0565b505050565b5b81811015610442576104375f8261040c565b600181019050610425565b5050565b601f8211156104875761045881610326565b61046184610338565b81016020851015610470578190505b61048461047c85610338565b830182610424565b50505b505050565b5f82821c905092915050565b5f6104a75f198460080261048c565b1980831691505092915050565b5f6104bf8383610498565b9150826002028217905092915050565b6104d882610292565b67ffffffffffffffff8111156104f1576104f061029c565b5b6104fb82546102f6565b610506828285610446565b5f60209050601f831160018114610537575f8415610525578287015190505b61052f85826104b4565b865550610596565b601f19841661054586610326565b5f5b8281101561056c57848901518255600182019150602085019450602081019050610547565b868310156105895784890151610585601f891682610498565b8355505b6001600288020188555050505b505050505050565b6105a78161022c565b82525050565b5f6020820190506105c05f83018461059e565b92915050565b6110e6806105d35f395ff3fe608060405234801561000f575f5ffd5b50600436106100cd575f3560e01c806370a082311161008a57806395d89b411161006457806395d89b41146101ff578063a9059cbb1461021d578063dd62ed3e1461024d578063f2fde38b1461027d576100cd565b806370a08231146101a7578063715018a6146101d75780638da5cb5b146101e1576100cd565b806306fdde03146100d1578063095ea7b3146100ef57806318160ddd1461011f57806323b872dd1461013d578063313ce5671461016d57806340c10f191461018b575b5f5ffd5b6100d9610299565b6040516100e69190610d95565b60405180910390f35b61010960048036038101906101049190610e46565b610329565b6040516101169190610e9e565b60405180910390f35b61012761034b565b6040516101349190610ec6565b60405180910390f35b61015760048036038101906101529190610edf565b610354565b6040516101649190610e9e565b60405180910390f35b610175610382565b6040516101829190610f4a565b60405180910390f35b6101a560048036038101906101a09190610e46565b61038a565b005b6101c160048036038101906101bc9190610f63565b6103a0565b6040516101ce9190610ec6565b60405180910390f35b6101df6103e5565b005b6101e96103f8565b6040516101f69190610f9d565b60405180910390f35b610207610420565b6040516102149190610d95565b60405180910390f35b61023760048036038101906102329190610e46565b6104b0565b6040516102449190610e9e565b60405180910390f35b61026760048036038101906102629190610fb6565b6104d2565b6040516102749190610ec6565b60405180910390f35b61029760048036038101906102929190610f63565b610554565b005b6060600380546102a890611021565b80601f01602080910402602001604051908101604052809291908181526020018280546102d490611021565b801561031f5780601f106102f65761010080835404028352916020019161031f565b820191905f5260205f20905b81548152906001019060200180831161030257829003601f168201915b5050505050905090565b5f5f6103336105d8565b90506103408185856105df565b600191505092915050565b5f600254905090565b5f5f61035e6105d8565b905061036b8582856105f1565b610376858585610684565b60019150509392505050565b5f6012905090565b610392610774565b61039c82826107fb565b5050565b5f5f5f8373ffffffffffffffffffffffffffffffffffffffff1673ffffffffffffffffffffffffffffffffffffffff1681526020019081526020015f20549050919050565b6103ed610774565b6103f65f61087a565b565b5f60055f9054906101000a900473ffffffffffffffffffffffffffffffffffffffff16905090565b60606004805461042f90611021565b80601f016020809104026020016040519081016040528092919081815260200182805461045b90611021565b80156104a65780601f1061047d576101008083540402835291602001916104a6565b820191905f5260205f20905b81548152906001019060200180831161048957829003601f168201915b5050505050905090565b5f5f6104ba6105d8565b90506104c7818585610684565b600191505092915050565b5f60015f8473ffffffffffffffffffffffffffffffffffffffff1673ffffffffffffffffffffffffffffffffffffffff1681526020019081526020015f205f8373ffffffffffffffffffffffffffffffffffffffff1673ffffffffffffffffffffffffffffffffffffffff1681526020019081526020015f2054905092915050565b61055c610774565b5f73ffffffffffffffffffffffffffffffffffffffff168173ffffffffffffffffffffffffffffffffffffffff16036105cc575f6040517f1e4fbdf70000000000000000000000000000000000000000000000000000000081526004016105c39190610f9d565b60405180910390fd5b6105d58161087a565b50565b5f33905090565b6105ec838383600161093d565b505050565b5f6105fc84846104d2565b90507fffffffffffffffffffffffffffffffffffffffffffffffffffffffffffffffff81101561067e578181101561066f578281836040517ffb8f41b200000000000000000000000000000000000000000000000000000000815260040161066693929190611051565b60405180910390fd5b61067d84848484035f61093d565b5b50505050565b5f73ffffffffffffffffffffffffffffffffffffffff168373ffffffffffffffffffffffffffffffffffffffff16036106f4575f6040517f96c6fd1e0000000000000000000000000000000000000000000000000000000081526004016106eb9190610f9d565b60405180910390fd5b5f73ffffffffffffffffffffffffffffffffffffffff168273ffffffffffffffffffffffffffffffffffffffff1603610764575f6040517fec442f0500000000000000000000000000000000000000000000000000000000815260040161075b9190610f9d565b60405180910390fd5b61076f838383610b0c565b505050565b61077c6105d8565b73ffffffffffffffffffffffffffffffffffffffff1661079a6103f8565b73ffffffffffffffffffffffffffffffffffffffff16146107f9576107bd6105d8565b6040517f118cdaa70000000000000000000000000000000000000000000000000000000081526004016107f09190610f9d565b60405180910390fd5b565b5f73ffffffffffffffffffffffffffffffffffffffff168273ffffffffffffffffffffffffffffffffffffffff160361086b575f6040517fec442f050000000000000000000000000000000000000000000000000000000081526004016108629190610f9d565b60405180910390fd5b6108765f8383610b0c565b5050565b5f60055f9054906101000a900473ffffffffffffffffffffffffffffffffffffffff1690508160055f6101000a81548173ffffffffffffffffffffffffffffffffffffffff021916908373ffffffffffffffffffffffffffffffffffffffff1602179055508173ffffffffffffffffffffffffffffffffffffffff168173ffffffffffffffffffffffffffffffffffffffff167f8be0079c531659141344cd1fd0a4f28419497f9722a3daafe3b4186f6b6457e060405160405180910390a35050565b5f73ffffffffffffffffffffffffffffffffffffffff168473ffffffffffffffffffffffffffffffffffffffff16036109ad575f6040517fe602df050000000000000000000000000000000000000000000000000000000081526004016109a49190610f9d565b60405180910390fd5b5f73ffffffffffffffffffffffffffffffffffffffff168373ffffffffffffffffffffffffffffffffffffffff1603610a1d575f6040517f94280d62000000000000000000000000000000000000000000000000000000008152600401610a149190610f9d565b60405180910390fd5b8160015f8673ffffffffffffffffffffffffffffffffffffffff1673ffffffffffffffffffffffffffffffffffffffff1681526020019081526020015f205f8573ffffffffffffffffffffffffffffffffffffffff1673ffffffffffffffffffffffffffffffffffffffff1681526020019081526020015f20819055508015610b06578273ffffffffffffffffffffffffffffffffffffffff168473ffffffffffffffffffffffffffffffffffffffff167f8c5be1e5ebec7d5bd14f71427d1e84f3dd0314c0f7b2291e5b200ac8c7c3b92584604051610afd9190610ec6565b60405180910390a35b50505050565b5f73ffffffffffffffffffffffffffffffffffffffff168373ffffffffffffffffffffffffffffffffffffffff1603610b5c578060025f828254610b5091906110b3565b92505081905550610c2a565b5f5f5f8573ffffffffffffffffffffffffffffffffffffffff1673ffffffffffffffffffffffffffffffffffffffff1681526020019081526020015f2054905081811015610be5578381836040517fe450d38c000000000000000000000000000000000000000000000000000000008152600401610bdc93929190611051565b60405180910390fd5b8181035f5f8673ffffffffffffffffffffffffffffffffffffffff1673ffffffffffffffffffffffffffffffffffffffff1681526020019081526020015f2081905550505b5f73ffffffffffffffffffffffffffffffffffffffff168273ffffffffffffffffffffffffffffffffffffffff1603610c71578060025f8282540392505081905550610cbb565b805f5f8473ffffffffffffffffffffffffffffffffffffffff1673ffffffffffffffffffffffffffffffffffffffff1681526020019081526020015f205f82825401925050819055505b8173ffffffffffffffffffffffffffffffffffffffff168373ffffffffffffffffffffffffffffffffffffffff167fddf252ad1be2c89b69c2b068fc378daa952ba7f163c4a11628f55a4df523b3ef83604051610d189190610ec6565b60405180910390a3505050565b5f81519050919050565b5f82825260208201905092915050565b8281835e5f83830152505050565b5f601f19601f8301169050919050565b5f610d6782610d25565b610d718185610d2f565b9350610d81818560208601610d3f565b610d8a81610d4d565b840191505092915050565b5f6020820190508181035f830152610dad8184610d5d565b905092915050565b5f5ffd5b5f73ffffffffffffffffffffffffffffffffffffffff82169050919050565b5f610de282610db9565b9050919050565b610df281610dd8565b8114610dfc575f5ffd5b50565b5f81359050610e0d81610de9565b92915050565b5f819050919050565b610e2581610e13565b8114610e2f575f5ffd5b50565b5f81359050610e4081610e1c565b92915050565b5f5f60408385031215610e5c57610e5b610db5565b5b5f610e6985828601610dff565b9250506020610e7a85828601610e32565b9150509250929050565b5f8115159050919050565b610e9881610e84565b82525050565b5f602082019050610eb15f830184610e8f565b92915050565b610ec081610e13565b82525050565b5f602082019050610ed95f830184610eb7565b92915050565b5f5f5f60608486031215610ef657610ef5610db5565b5b5f610f0386828701610dff565b9350506020610f1486828701610dff565b9250506040610f2586828701610e32565b9150509250925092565b5f60ff82169050919050565b610f4481610f2f565b82525050565b5f602082019050610f5d5f830184610f3b565b92915050565b5f60208284031215610f7857610f77610db5565b5b5f610f8584828501610dff565b91505092915050565b610f9781610dd8565b82525050565b5f602082019050610fb05f830184610f8e565b92915050565b5f5f60408385031215610fcc57610fcb610db5565b5b5f610fd985828601610dff565b9250506020610fea85828601610dff565b9150509250929050565b7f4e487b71000000000000000000000000000000000000000000000000000000005f52602260045260245ffd5b5f600282049050600182168061103857607f821691505b60208210810361104b5761104a610ff4565b5b50919050565b5f6060820190506110645f830186610f8e565b6110716020830185610eb7565b61107e6040830184610eb7565b949350505050565b7f4e487b71000000000000000000000000000000000000000000000000000000005f52601160045260245ffd5b5f6110bd82610e13565b91506110c883610e13565b92508282019050808211156110e0576110df611086565b5b92915050560000000000000000000000006cfd0753ec4da15dcb418e11e921c0665c1d1cbf",
        "nonce": "0x4a",
        "chainId": "0x13882"
      },
      "additionalContracts": [],
      "isFixedGasLimit": false
    },
    {
      "hash": "0x1441a182605be12251f5006f3955f7dcfce6426aa817983cc52511a8cce52a45",
      "transactionType": "CREATE2",
      "contractName": "TheGuildBadgeRegistry",
      "contractAddress": "0x94f5f12be60a338d263882a1a49e81ca8a0c30f4",
      "function": null,
      "arguments": null,
      "transaction": {
        "from": "0x6cfd0753ec4da15dcb418e11e921c0665c1d1cbf",
        "to": "0x4e59b44847b379578588920ca78fbf26c0b4956c",
        "gas": "0xc0d11",
        "value": "0x0",
        "input": "0x7468656775696c645f765f302e312e33000000000000000000000000000000006080604052348015600e575f5ffd5b506108cf8061001c5f395ff3fe608060405234801561000f575f5ffd5b5060043610610060575f3560e01c80633580dbc71461006457806338a699a4146100805780634d3c901d146100b057806377002fcf146100e257806381407b1b14610114578063a490a69714610144575b5f5ffd5b61007e6004803603810190610079919061059c565b610162565b005b61009a600480360381019061009591906105da565b610346565b6040516100a7919061061f565b60405180910390f35b6100ca60048036038101906100c5919061066b565b61036c565b6040516100d9939291906106e4565b60405180910390f35b6100fc60048036038101906100f791906105da565b610432565b60405161010b939291906106e4565b60405180910390f35b61012e6004803603810190610129919061066b565b610534565b60405161013b9190610719565b60405180910390f35b61014c610559565b6040516101599190610741565b60405180910390f35b5f5f1b82036101a6576040517f08c379a000000000000000000000000000000000000000000000000000000000815260040161019d906107b4565b60405180910390fd5b60015f8381526020019081526020015f205f9054906101000a900460ff1615610204576040517f08c379a00000000000000000000000000000000000000000000000000000000081526004016101fb9061081c565b60405180910390fd5b5f60405180606001604052808481526020018381526020013373ffffffffffffffffffffffffffffffffffffffff168152509050805f5f8581526020019081526020015f205f820151815f0155602082015181600101556040820151816002015f6101000a81548173ffffffffffffffffffffffffffffffffffffffff021916908373ffffffffffffffffffffffffffffffffffffffff1602179055509050506001805f8581526020019081526020015f205f6101000a81548160ff021916908315150217905550600283908060018154018082558091505060019003905f5260205f20015f90919091909150553373ffffffffffffffffffffffffffffffffffffffff16837f7d648d3c718d609c93c086fd770653e10a64c5afe41e0b1b0b4bb76bba24c479846040516103399190610719565b60405180910390a3505050565b5f60015f8381526020019081526020015f205f9054906101000a900460ff169050919050565b5f5f5f5f600285815481106103845761038361083a565b5b905f5260205f20015490505f5f5f8381526020019081526020015f206040518060600160405290815f820154815260200160018201548152602001600282015f9054906101000a900473ffffffffffffffffffffffffffffffffffffffff1673ffffffffffffffffffffffffffffffffffffffff1673ffffffffffffffffffffffffffffffffffffffff16815250509050805f01518160200151826040015194509450945050509193909250565b5f5f5f60015f8581526020019081526020015f205f9054906101000a900460ff16610492576040517f08c379a0000000000000000000000000000000000000000000000000000000008152600401610489906108b1565b60405180910390fd5b5f5f5f8681526020019081526020015f206040518060600160405290815f820154815260200160018201548152602001600282015f9054906101000a900473ffffffffffffffffffffffffffffffffffffffff1673ffffffffffffffffffffffffffffffffffffffff1673ffffffffffffffffffffffffffffffffffffffff16815250509050805f015181602001518260400151935093509350509193909250565b5f600282815481106105495761054861083a565b5b905f5260205f2001549050919050565b5f600280549050905090565b5f5ffd5b5f819050919050565b61057b81610569565b8114610585575f5ffd5b50565b5f8135905061059681610572565b92915050565b5f5f604083850312156105b2576105b1610565565b5b5f6105bf85828601610588565b92505060206105d085828601610588565b9150509250929050565b5f602082840312156105ef576105ee610565565b5b5f6105fc84828501610588565b91505092915050565b5f8115159050919050565b61061981610605565b82525050565b5f6020820190506106325f830184610610565b92915050565b5f819050919050565b61064a81610638565b8114610654575f5ffd5b50565b5f8135905061066581610641565b92915050565b5f602082840312156106805761067f610565565b5b5f61068d84828501610657565b91505092915050565b61069f81610569565b82525050565b5f73ffffffffffffffffffffffffffffffffffffffff82169050919050565b5f6106ce826106a5565b9050919050565b6106de816106c4565b82525050565b5f6060820190506106f75f830186610696565b6107046020830185610696565b61071160408301846106d5565b949350505050565b5f60208201905061072c5f830184610696565b92915050565b61073b81610638565b82525050565b5f6020820190506107545f830184610732565b92915050565b5f82825260208201905092915050565b7f454d5054595f4e414d45000000000000000000000000000000000000000000005f82015250565b5f61079e600a8361075a565b91506107a98261076a565b602082019050919050565b5f6020820190508181035f8301526107cb81610792565b9050919050565b7f4455504c49434154455f4e414d450000000000000000000000000000000000005f82015250565b5f610806600e8361075a565b9150610811826107d2565b602082019050919050565b5f6020820190508181035f830152610833816107fa565b9050919050565b7f4e487b71000000000000000000000000000000000000000000000000000000005f52603260045260245ffd5b7f4e4f545f464f554e4400000000000000000000000000000000000000000000005f82015250565b5f61089b60098361075a565b91506108a682610867565b602082019050919050565b5f6020820190508181035f8301526108c88161088f565b905091905056",
        "nonce": "0x4b",
        "chainId": "0x13882"
      },
      "additionalContracts": [],
      "isFixedGasLimit": false
    },
    {
      "hash": "0x94deaec6aaa037d9de3dd41baebcd9eb515c6249ffdeff3a6eb49a4440c26498",
      "transactionType": "CREATE2",
      "contractName": "TheGuildAttestationResolver",
      "contractAddress": "0x8b481fb56b133b590348b2b3b1d3ae2fce0d4324",
      "function": null,
      "arguments": [
        "0xb101275a60d8bfb14529C421899aD7CA1Ae5B5Fc",
        "0x4649490B118389d0Be8F48b8953eFb235d8CB545",
        "0x94f5F12BE60a338D263882a1A49E81ca8A0c30F4"
      ],
      "transaction": {
        "from": "0x6cfd0753ec4da15dcb418e11e921c0665c1d1cbf",
        "to": "0x4e59b44847b379578588920ca78fbf26c0b4956c",
        "gas": "0x229d10",
        "value": "0x0",
        "input": "0x7468656775696c645f765f302e312e3300000000000000000000000000000000610100604052348015610010575f5ffd5b50604051611cf4380380611cf483398181016040528101906100329190610259565b82600160045f82608081815250508160a081815250508060c081815250505050505f73ffffffffffffffffffffffffffffffffffffffff168173ffffffffffffffffffffffffffffffffffffffff16036100b8576040517f83780ffe00000000000000000000000000000000000000000000000000000000815260040160405180910390fd5b8073ffffffffffffffffffffffffffffffffffffffff1660e08173ffffffffffffffffffffffffffffffffffffffff168152505050815f5f6101000a81548173ffffffffffffffffffffffffffffffffffffffff021916908373ffffffffffffffffffffffffffffffffffffffff1602179055508060015f6101000a81548173ffffffffffffffffffffffffffffffffffffffff021916908373ffffffffffffffffffffffffffffffffffffffff1602179055505050506102a9565b5f5ffd5b5f73ffffffffffffffffffffffffffffffffffffffff82169050919050565b5f6101a182610178565b9050919050565b5f6101b282610197565b9050919050565b6101c2816101a8565b81146101cc575f5ffd5b50565b5f815190506101dd816101b9565b92915050565b5f6101ed82610197565b9050919050565b6101fd816101e3565b8114610207575f5ffd5b50565b5f81519050610218816101f4565b92915050565b5f61022882610197565b9050919050565b6102388161021e565b8114610242575f5ffd5b50565b5f815190506102538161022f565b92915050565b5f5f5f606084860312156102705761026f610174565b5b5f61027d868287016101cf565b935050602061028e8682870161020a565b925050604061029f86828701610245565b9150509250925092565b60805160a05160c05160e051611a116102e35f395f818161052701526106e301525f6102a101525f61027801525f61024f0152611a115ff3fe60806040526004361061007e575f3560e01c80639df97fd71161004d5780639df97fd71461017b578063ce46e046146101b7578063e49617e1146101e1578063e60c350514610211576100c3565b806354fd4d50146100c757806388e5b2d9146100f157806391db0b7e14610121578063962ea8ae14610151576100c3565b366100c35761008b610241565b6100c1576040517f1574f9f300000000000000000000000000000000000000000000000000000000815260040160405180910390fd5b005b5f5ffd5b3480156100d2575f5ffd5b506100db610248565b6040516100e89190610caf565b60405180910390f35b61010b60048036038101906101069190610d96565b6102eb565b6040516101189190610e2e565b60405180910390f35b61013b60048036038101906101369190610d96565b6103fe565b6040516101489190610e2e565b60405180910390f35b34801561015c575f5ffd5b50610165610511565b6040516101729190610e5f565b60405180910390f35b348015610186575f5ffd5b506101a1600480360381019061019c9190610ea2565b61051d565b6040516101ae919061107e565b60405180910390f35b3480156101c2575f5ffd5b506101cb610241565b6040516101d89190610e2e565b60405180910390f35b6101fb60048036038101906101f691906110c1565b6105e3565b6040516102089190610e2e565b60405180910390f35b61022b600480360381019061022691906110c1565b6105fd565b6040516102389190610e2e565b60405180910390f35b5f5f905090565b60606102737f0000000000000000000000000000000000000000000000000000000000000000610617565b61029c7f0000000000000000000000000000000000000000000000000000000000000000610617565b6102c57f0000000000000000000000000000000000000000000000000000000000000000610617565b6040516020016102d79392919061118c565b604051602081830303815290604052905090565b5f6102f46106e1565b5f858590509050838390508114610337576040517f947d5a8400000000000000000000000000000000000000000000000000000000815260040160405180910390fd5b5f3490505f5f90505b828110156103ee575f86868381811061035c5761035b6111d2565b5b9050602002013590508281111561039f576040517f1101129400000000000000000000000000000000000000000000000000000000815260040160405180910390fd5b6103cd8989848181106103b5576103b46111d2565b5b90506020028101906103c7919061120b565b82610768565b6103dd575f9450505050506103f6565b808303925050806001019050610340565b506001925050505b949350505050565b5f6104076106e1565b5f85859050905083839050811461044a576040517f947d5a8400000000000000000000000000000000000000000000000000000000815260040160405180910390fd5b5f3490505f5f90505b82811015610501575f86868381811061046f5761046e6111d2565b5b905060200201359050828111156104b2576040517f1101129400000000000000000000000000000000000000000000000000000000815260040160405180910390fd5b6104e08989848181106104c8576104c76111d2565b5b90506020028101906104da919061120b565b82610773565b6104f0575f945050505050610509565b808303925050806001019050610453565b506001925050505b949350505050565b5f600280549050905090565b610525610ba9565b7f000000000000000000000000000000000000000000000000000000000000000073ffffffffffffffffffffffffffffffffffffffff1663a3112a6460028481548110610575576105746111d2565b5b905f5260205f2001546040518263ffffffff1660e01b815260040161059a9190611242565b5f60405180830381865afa1580156105b4573d5f5f3e3d5ffd5b505050506040513d5f823e3d601f19601f820116820180604052508101906105dc9190611534565b9050919050565b5f6105ec6106e1565b6105f68234610768565b9050919050565b5f6106066106e1565b6106108234610773565b9050919050565b60605f600161062584610a58565b0190505f8167ffffffffffffffff8111156106435761064261125f565b5b6040519080825280601f01601f1916602001820160405280156106755781602001600182028036833780820191505090505b5090505f82602083010190505b6001156106d6578080600190039150507f3031323334353637383961626364656600000000000000000000000000000000600a86061a8153600a85816106cb576106ca61157b565b5b0494505f8503610682575b819350505050919050565b7f000000000000000000000000000000000000000000000000000000000000000073ffffffffffffffffffffffffffffffffffffffff163373ffffffffffffffffffffffffffffffffffffffff1614610766576040517f4ca8886700000000000000000000000000000000000000000000000000000000815260040160405180910390fd5b565b5f6001905092915050565b5f5f8380610120019061078691906115a8565b810190610793919061169a565b50905060015f9054906101000a900473ffffffffffffffffffffffffffffffffffffffff1673ffffffffffffffffffffffffffffffffffffffff166338a699a4826040518263ffffffff1660e01b81526004016107f09190611242565b602060405180830381865afa15801561080b573d5f5f3e3d5ffd5b505050506040513d601f19601f8201168201806040525081019061082f91906116f4565b61083c575f915050610a52565b5f8460e00160208101906108509190611733565b8560c00160208101906108639190611733565b836040516020016108769392919061176d565b60405160208183030381529060405280519060200120905060035f8281526020019081526020015f205f9054906101000a900460ff16156108bb575f92505050610a52565b600160035f8381526020019081526020015f205f6101000a81548160ff0219169083151502179055505f5f9054906101000a900473ffffffffffffffffffffffffffffffffffffffff1673ffffffffffffffffffffffffffffffffffffffff166340c10f198660e00160208101906109339190611733565b5f5f9054906101000a900473ffffffffffffffffffffffffffffffffffffffff1673ffffffffffffffffffffffffffffffffffffffff1663313ce5676040518163ffffffff1660e01b8152600401602060405180830381865afa15801561099c573d5f5f3e3d5ffd5b505050506040513d601f19601f820116820180604052508101906109c091906117d8565b600a6109cc919061195f565b600a6109d891906119a9565b6040518363ffffffff1660e01b81526004016109f59291906119ea565b5f604051808303815f87803b158015610a0c575f5ffd5b505af1158015610a1e573d5f5f3e3d5ffd5b505050506002855f0135908060018154018082558091505060019003905f5260205f20015f90919091909150556001925050505b92915050565b5f5f5f90507a184f03e93ff9f4daa797ed6e38ed64bf6a1f0100000000000000008310610ab4577a184f03e93ff9f4daa797ed6e38ed64bf6a1f0100000000000000008381610aaa57610aa961157b565b5b0492506040810190505b6d04ee2d6d415b85acef81000000008310610af1576d04ee2d6d415b85acef81000000008381610ae757610ae661157b565b5b0492506020810190505b662386f26fc100008310610b2057662386f26fc100008381610b1657610b1561157b565b5b0492506010810190505b6305f5e1008310610b49576305f5e1008381610b3f57610b3e61157b565b5b0492506008810190505b6127108310610b6e576127108381610b6457610b6361157b565b5b0492506004810190505b60648310610b915760648381610b8757610b8661157b565b5b0492506002810190505b600a8310610ba0576001810190505b80915050919050565b6040518061014001604052805f81526020015f81526020015f67ffffffffffffffff1681526020015f67ffffffffffffffff1681526020015f67ffffffffffffffff1681526020015f81526020015f73ffffffffffffffffffffffffffffffffffffffff1681526020015f73ffffffffffffffffffffffffffffffffffffffff1681526020015f15158152602001606081525090565b5f81519050919050565b5f82825260208201905092915050565b8281835e5f83830152505050565b5f601f19601f8301169050919050565b5f610c8182610c3f565b610c8b8185610c49565b9350610c9b818560208601610c59565b610ca481610c67565b840191505092915050565b5f6020820190508181035f830152610cc78184610c77565b905092915050565b5f604051905090565b5f5ffd5b5f5ffd5b5f5ffd5b5f5ffd5b5f5ffd5b5f5f83601f840112610d0157610d00610ce0565b5b8235905067ffffffffffffffff811115610d1e57610d1d610ce4565b5b602083019150836020820283011115610d3a57610d39610ce8565b5b9250929050565b5f5f83601f840112610d5657610d55610ce0565b5b8235905067ffffffffffffffff811115610d7357610d72610ce4565b5b602083019150836020820283011115610d8f57610d8e610ce8565b5b9250929050565b5f5f5f5f60408587031215610dae57610dad610cd8565b5b5f85013567ffffffffffffffff811115610dcb57610dca610cdc565b5b610dd787828801610cec565b9450945050602085013567ffffffffffffffff811115610dfa57610df9610cdc565b5b610e0687828801610d41565b925092505092959194509250565b5f8115159050919050565b610e2881610e14565b82525050565b5f602082019050610e415f830184610e1f565b92915050565b5f819050919050565b610e5981610e47565b82525050565b5f602082019050610e725f830184610e50565b92915050565b610e8181610e47565b8114610e8b575f5ffd5b50565b5f81359050610e9c81610e78565b92915050565b5f60208284031215610eb757610eb6610cd8565b5b5f610ec484828501610e8e565b91505092915050565b5f819050919050565b610edf81610ecd565b82525050565b5f67ffffffffffffffff82169050919050565b610f0181610ee5565b82525050565b5f73ffffffffffffffffffffffffffffffffffffffff82169050919050565b5f610f3082610f07565b9050919050565b610f4081610f26565b82525050565b610f4f81610e14565b82525050565b5f81519050919050565b5f82825260208201905092915050565b5f610f7982610f55565b610f838185610f5f565b9350610f93818560208601610c59565b610f9c81610c67565b840191505092915050565b5f61014083015f830151610fbd5f860182610ed6565b506020830151610fd06020860182610ed6565b506040830151610fe36040860182610ef8565b506060830151610ff66060860182610ef8565b5060808301516110096080860182610ef8565b5060a083015161101c60a0860182610ed6565b5060c083015161102f60c0860182610f37565b5060e083015161104260e0860182610f37565b50610100830151611057610100860182610f46565b506101208301518482036101208601526110718282610f6f565b9150508091505092915050565b5f6020820190508181035f8301526110968184610fa7565b905092915050565b5f5ffd5b5f61014082840312156110b8576110b761109e565b5b81905092915050565b5f602082840312156110d6576110d5610cd8565b5b5f82013567ffffffffffffffff8111156110f3576110f2610cdc565b5b6110ff848285016110a2565b91505092915050565b5f81905092915050565b5f61111c82610c3f565b6111268185611108565b9350611136818560208601610c59565b80840191505092915050565b7f2e000000000000000000000000000000000000000000000000000000000000005f82015250565b5f611176600183611108565b915061118182611142565b600182019050919050565b5f6111978286611112565b91506111a28261116a565b91506111ae8285611112565b91506111b98261116a565b91506111c58284611112565b9150819050949350505050565b7f4e487b71000000000000000000000000000000000000000000000000000000005f52603260045260245ffd5b5f5ffd5b5f5ffd5b5f5ffd5b5f8235600161014003833603038112611227576112266111ff565b5b80830191505092915050565b61123c81610ecd565b82525050565b5f6020820190506112555f830184611233565b92915050565b5f5ffd5b7f4e487b71000000000000000000000000000000000000000000000000000000005f52604160045260245ffd5b61129582610c67565b810181811067ffffffffffffffff821117156112b4576112b361125f565b5b80604052505050565b5f6112c6610ccf565b90506112d2828261128c565b919050565b5f5ffd5b6112e481610ecd565b81146112ee575f5ffd5b50565b5f815190506112ff816112db565b92915050565b61130e81610ee5565b8114611318575f5ffd5b50565b5f8151905061132981611305565b92915050565b61133881610f26565b8114611342575f5ffd5b50565b5f815190506113538161132f565b92915050565b61136281610e14565b811461136c575f5ffd5b50565b5f8151905061137d81611359565b92915050565b5f5ffd5b5f67ffffffffffffffff8211156113a1576113a061125f565b5b6113aa82610c67565b9050602081019050919050565b5f6113c96113c484611387565b6112bd565b9050828152602081018484840111156113e5576113e4611383565b5b6113f0848285610c59565b509392505050565b5f82601f83011261140c5761140b610ce0565b5b815161141c8482602086016113b7565b91505092915050565b5f610140828403121561143b5761143a61125b565b5b6114466101406112bd565b90505f611455848285016112f1565b5f830152506020611468848285016112f1565b602083015250604061147c8482850161131b565b60408301525060606114908482850161131b565b60608301525060806114a48482850161131b565b60808301525060a06114b8848285016112f1565b60a08301525060c06114cc84828501611345565b60c08301525060e06114e084828501611345565b60e0830152506101006114f58482850161136f565b6101008301525061012082015167ffffffffffffffff81111561151b5761151a6112d7565b5b611527848285016113f8565b6101208301525092915050565b5f6020828403121561154957611548610cd8565b5b5f82015167ffffffffffffffff81111561156657611565610cdc565b5b61157284828501611425565b91505092915050565b7f4e487b71000000000000000000000000000000000000000000000000000000005f52601260045260245ffd5b5f5f833560016020038436030381126115c4576115c36111ff565b5b80840192508235915067ffffffffffffffff8211156115e6576115e5611203565b5b60208301925060018202360383131561160257611601611207565b5b509250929050565b5f81359050611618816112db565b92915050565b828183375f83830152505050565b5f61163e61163984611387565b6112bd565b90508281526020810184848401111561165a57611659611383565b5b61166584828561161e565b509392505050565b5f82601f83011261168157611680610ce0565b5b813561169184826020860161162c565b91505092915050565b5f5f604083850312156116b0576116af610cd8565b5b5f6116bd8582860161160a565b925050602083013567ffffffffffffffff8111156116de576116dd610cdc565b5b6116ea8582860161166d565b9150509250929050565b5f6020828403121561170957611708610cd8565b5b5f6117168482850161136f565b91505092915050565b5f8135905061172d8161132f565b92915050565b5f6020828403121561174857611747610cd8565b5b5f6117558482850161171f565b91505092915050565b61176781610f26565b82525050565b5f6060820190506117805f83018661175e565b61178d602083018561175e565b61179a6040830184611233565b949350505050565b5f60ff82169050919050565b6117b7816117a2565b81146117c1575f5ffd5b50565b5f815190506117d2816117ae565b92915050565b5f602082840312156117ed576117ec610cd8565b5b5f6117fa848285016117c4565b91505092915050565b7f4e487b71000000000000000000000000000000000000000000000000000000005f52601160045260245ffd5b5f8160011c9050919050565b5f5f8291508390505b60018511156118855780860481111561186157611860611803565b5b60018516156118705780820291505b808102905061187e85611830565b9450611845565b94509492505050565b5f8261189d5760019050611958565b816118aa575f9050611958565b81600181146118c057600281146118ca576118f9565b6001915050611958565b60ff8411156118dc576118db611803565b5b8360020a9150848211156118f3576118f2611803565b5b50611958565b5060208310610133831016604e8410600b841016171561192e5782820a90508381111561192957611928611803565b5b611958565b61193b848484600161183c565b9250905081840481111561195257611951611803565b5b81810290505b9392505050565b5f61196982610e47565b9150611974836117a2565b92506119a17fffffffffffffffffffffffffffffffffffffffffffffffffffffffffffffffff848461188e565b905092915050565b5f6119b382610e47565b91506119be83610e47565b92508282026119cc81610e47565b915082820484148315176119e3576119e2611803565b5b5092915050565b5f6040820190506119fd5f83018561175e565b611a0a6020830184610e50565b939250505056000000000000000000000000b101275a60d8bfb14529c421899ad7ca1ae5b5fc0000000000000000000000004649490b118389d0be8f48b8953efb235d8cb54500000000000000000000000094f5f12be60a338d263882a1a49e81ca8a0c30f4",
        "nonce": "0x4c",
        "chainId": "0x13882"
      },
      "additionalContracts": [],
      "isFixedGasLimit": false
    },
    {
      "hash": "0xbb3b1c2030c8a76f9742eda835a3e011e257b8c001b5956438834bfc0db7556f",
      "transactionType": "CALL",
      "contractName": "TheGuildActivityToken",
      "contractAddress": "0x4649490b118389d0be8f48b8953efb235d8cb545",
      "function": "transferOwnership(address)",
      "arguments": [
        "0x8B481fB56b133b590348B2B3B1D3Ae2fce0D4324"
      ],
      "transaction": {
        "from": "0x6cfd0753ec4da15dcb418e11e921c0665c1d1cbf",
        "to": "0x4649490b118389d0be8f48b8953efb235d8cb545",
        "gas": "0xa5f6",
        "value": "0x0",
        "input": "0xf2fde38b0000000000000000000000008b481fb56b133b590348b2b3b1d3ae2fce0d4324",
        "nonce": "0x4d",
        "chainId": "0x13882"
      },
      "additionalContracts": [],
      "isFixedGasLimit": false
    },
    {
      "hash": "0xdd692eacd075605cb97c087b7802b46847cf88aa49fb8f74acf51875445d48f4",
      "transactionType": "CALL",
      "contractName": "SchemaRegistry",
      "contractAddress": "0x23c5701a1bda89c61d181bd79e5203c730708ae7",
      "function": "register(string,address,bool)",
      "arguments": [
        "bytes32 badgeName, bytes justification",
        "0x8B481fB56b133b590348B2B3B1D3Ae2fce0D4324",
        "true"
      ],
      "transaction": {
        "from": "0x6cfd0753ec4da15dcb418e11e921c0665c1d1cbf",
        "to": "0x23c5701a1bda89c61d181bd79e5203c730708ae7",
        "gas": "0x31ccb",
        "value": "0x0",
        "input": "0x60d7a27800000000000000000000000000000000000000000000000000000000000000600000000000000000000000008b481fb56b133b590348b2b3b1d3ae2fce0d432400000000000000000000000000000000000000000000000000000000000000010000000000000000000000000000000000000000000000000000000000000026627974657333322062616467654e616d652c206279746573206a757374696669636174696f6e0000000000000000000000000000000000000000000000000000",
        "nonce": "0x4e",
        "chainId": "0x13882"
      },
      "additionalContracts": [],
      "isFixedGasLimit": false
    },
    {
      "hash": "0x86f4af9f6ab97a78528bf72757fc0ffcda86c4dac1dfab1e0ff6338f2df634ac",
      "transactionType": "CALL",
      "contractName": "TheGuildBadgeRegistry",
      "contractAddress": "0x94f5f12be60a338d263882a1a49e81ca8a0c30f4",
      "function": "createBadge(bytes32,bytes32)",
      "arguments": [
        "0x5275737400000000000000000000000000000000000000000000000000000000",
        "0x4b6e6f7720686f7720746f20636f646520696e20527573740000000000000000"
      ],
      "transaction": {
        "from": "0x6cfd0753ec4da15dcb418e11e921c0665c1d1cbf",
        "to": "0x94f5f12be60a338d263882a1a49e81ca8a0c30f4",
        "gas": "0x3842f",
        "value": "0x0",
        "input": "0x3580dbc752757374000000000000000000000000000000000000000000000000000000004b6e6f7720686f7720746f20636f646520696e20527573740000000000000000",
        "nonce": "0x4f",
        "chainId": "0x13882"
      },
      "additionalContracts": [],
      "isFixedGasLimit": false
    },
    {
      "hash": "0x8fb85f2b92b97755a0fb270f1e796d8ba117c614b88df43ae96636eb7870779a",
      "transactionType": "CALL",
      "contractName": "TheGuildBadgeRegistry",
      "contractAddress": "0x94f5f12be60a338d263882a1a49e81ca8a0c30f4",
      "function": "createBadge(bytes32,bytes32)",
      "arguments": [
        "0x536f6c6964697479000000000000000000000000000000000000000000000000",
        "0x4b6e6f7720686f7720746f20636f646520696e20536f6c696469747900000000"
      ],
      "transaction": {
        "from": "0x6cfd0753ec4da15dcb418e11e921c0665c1d1cbf",
        "to": "0x94f5f12be60a338d263882a1a49e81ca8a0c30f4",
        "gas": "0x2f66d",
        "value": "0x0",
        "input": "0x3580dbc7536f6c69646974790000000000000000000000000000000000000000000000004b6e6f7720686f7720746f20636f646520696e20536f6c696469747900000000",
        "nonce": "0x50",
        "chainId": "0x13882"
      },
      "additionalContracts": [],
      "isFixedGasLimit": false
    },
    {
      "hash": "0x77b17b5c357de698a208737e19b7dd5799037d9443c24588a4c8b03d6b7f5999",
      "transactionType": "CALL",
      "contractName": "TheGuildBadgeRegistry",
      "contractAddress": "0x94f5f12be60a338d263882a1a49e81ca8a0c30f4",
      "function": "createBadge(bytes32,bytes32)",
      "arguments": [
        "0x5479706553637269707400000000000000000000000000000000000000000000",
        "0x4b6e6f7720686f7720746f20636f646520696e20547970655363726970740000"
      ],
      "transaction": {
        "from": "0x6cfd0753ec4da15dcb418e11e921c0665c1d1cbf",
        "to": "0x94f5f12be60a338d263882a1a49e81ca8a0c30f4",
        "gas": "0x2f6af",
        "value": "0x0",
        "input": "0x3580dbc754797065536372697074000000000000000000000000000000000000000000004b6e6f7720686f7720746f20636f646520696e20547970655363726970740000",
        "nonce": "0x51",
        "chainId": "0x13882"
      },
      "additionalContracts": [],
      "isFixedGasLimit": false
    },
    {
      "hash": "0x2f800dfe1dbd156bfe12dd57e80ab841cf0a5024c9ed962823d295faebd449b0",
      "transactionType": "CREATE2",
      "contractName": "TheGuildBadgeRanking",
      "contractAddress": "0x435576dfa5b151a6a1c8a4b5eddfb4ceed5a55af",
      "function": null,
      "arguments": [
        "0x94f5F12BE60a338D263882a1A49E81ca8A0c30F4"
      ],
      "transaction": {
        "from": "0x6cfd0753ec4da15dcb418e11e921c0665c1d1cbf",
        "to": "0x4e59b44847b379578588920ca78fbf26c0b4956c",
        "gas": "0xb6a22",
        "value": "0x0",
        "input": "0x7468656775696c645f765f302e312e3300000000000000000000000000000000608060405234801561000f575f5ffd5b506040516109bf3803806109bf83398181016040528101906100319190610153565b5f73ffffffffffffffffffffffffffffffffffffffff168173ffffffffffffffffffffffffffffffffffffffff160361009f576040517f08c379a0000000000000000000000000000000000000000000000000000000008152600401610096906101d8565b60405180910390fd5b805f5f6101000a81548173ffffffffffffffffffffffffffffffffffffffff021916908373ffffffffffffffffffffffffffffffffffffffff160217905550506101f6565b5f5ffd5b5f73ffffffffffffffffffffffffffffffffffffffff82169050919050565b5f610111826100e8565b9050919050565b5f61012282610107565b9050919050565b61013281610118565b811461013c575f5ffd5b50565b5f8151905061014d81610129565b92915050565b5f60208284031215610168576101676100e4565b5b5f6101758482850161013f565b91505092915050565b5f82825260208201905092915050565b7f494e56414c49445f5245474953545259000000000000000000000000000000005f82015250565b5f6101c260108361017e565b91506101cd8261018e565b602082019050919050565b5f6020820190508181035f8301526101ef816101b6565b9050919050565b6107bc806102035f395ff3fe608060405234801561000f575f5ffd5b5060043610610055575f3560e01c806387f7ee2f14610059578063ce4a0a2d14610089578063d9437ba1146100b9578063e7f76a30146100d5578063ea3e7cef14610105575b5f5ffd5b610073600480360381019061006e91906104aa565b610123565b6040516100809190610502565b60405180910390f35b6100a3600480360381019061009e919061051b565b610185565b6040516100b0919061055e565b60405180910390f35b6100d360048036038101906100ce919061051b565b61019a565b005b6100ef60048036038101906100ea919061051b565b6103db565b6040516100fc919061055e565b60405180910390f35b61010d6103f5565b60405161011a91906105d2565b60405180910390f35b5f60025f8481526020019081526020015f205f8373ffffffffffffffffffffffffffffffffffffffff1673ffffffffffffffffffffffffffffffffffffffff1681526020019081526020015f205f9054906101000a900460ff16905092915050565b6001602052805f5260405f205f915090505481565b5f5f9054906101000a900473ffffffffffffffffffffffffffffffffffffffff1673ffffffffffffffffffffffffffffffffffffffff166338a699a4826040518263ffffffff1660e01b81526004016101f391906105fa565b602060405180830381865afa15801561020e573d5f5f3e3d5ffd5b505050506040513d601f19601f82011682018060405250810190610232919061063d565b610271576040517f08c379a0000000000000000000000000000000000000000000000000000000008152600401610268906106c2565b60405180910390fd5b60025f8281526020019081526020015f205f3373ffffffffffffffffffffffffffffffffffffffff1673ffffffffffffffffffffffffffffffffffffffff1681526020019081526020015f205f9054906101000a900460ff161561030a576040517f08c379a00000000000000000000000000000000000000000000000000000000081526004016103019061072a565b60405180910390fd5b600160025f8381526020019081526020015f205f3373ffffffffffffffffffffffffffffffffffffffff1673ffffffffffffffffffffffffffffffffffffffff1681526020019081526020015f205f6101000a81548160ff02191690831515021790555060015f8281526020019081526020015f205f81548092919061038f90610775565b91905055503373ffffffffffffffffffffffffffffffffffffffff16817fa0379dc3dcf5bd833ffd3dc48c2af12c226c21cbf7d47a3a157519ab0fe9ea6a60405160405180910390a350565b5f60015f8381526020019081526020015f20549050919050565b5f5f9054906101000a900473ffffffffffffffffffffffffffffffffffffffff1681565b5f5ffd5b5f819050919050565b61042f8161041d565b8114610439575f5ffd5b50565b5f8135905061044a81610426565b92915050565b5f73ffffffffffffffffffffffffffffffffffffffff82169050919050565b5f61047982610450565b9050919050565b6104898161046f565b8114610493575f5ffd5b50565b5f813590506104a481610480565b92915050565b5f5f604083850312156104c0576104bf610419565b5b5f6104cd8582860161043c565b92505060206104de85828601610496565b9150509250929050565b5f8115159050919050565b6104fc816104e8565b82525050565b5f6020820190506105155f8301846104f3565b92915050565b5f602082840312156105305761052f610419565b5b5f61053d8482850161043c565b91505092915050565b5f819050919050565b61055881610546565b82525050565b5f6020820190506105715f83018461054f565b92915050565b5f819050919050565b5f61059a61059561059084610450565b610577565b610450565b9050919050565b5f6105ab82610580565b9050919050565b5f6105bc826105a1565b9050919050565b6105cc816105b2565b82525050565b5f6020820190506105e55f8301846105c3565b92915050565b6105f48161041d565b82525050565b5f60208201905061060d5f8301846105eb565b92915050565b61061c816104e8565b8114610626575f5ffd5b50565b5f8151905061063781610613565b92915050565b5f6020828403121561065257610651610419565b5b5f61065f84828501610629565b91505092915050565b5f82825260208201905092915050565b7f42414447455f4e4f545f464f554e4400000000000000000000000000000000005f82015250565b5f6106ac600f83610668565b91506106b782610678565b602082019050919050565b5f6020820190508181035f8301526106d9816106a0565b9050919050565b7f414c52454144595f564f544544000000000000000000000000000000000000005f82015250565b5f610714600d83610668565b915061071f826106e0565b602082019050919050565b5f6020820190508181035f83015261074181610708565b9050919050565b7f4e487b71000000000000000000000000000000000000000000000000000000005f52601160045260245ffd5b5f61077f82610546565b91507fffffffffffffffffffffffffffffffffffffffffffffffffffffffffffffffff82036107b1576107b0610748565b5b6001820190509190505600000000000000000000000094f5f12be60a338d263882a1a49e81ca8a0c30f4",
        "nonce": "0x52",
        "chainId": "0x13882"
      },
      "additionalContracts": [],
      "isFixedGasLimit": false
    },
    {
      "hash": "0x7b85ac16958cee6192204c8b5e32d41b4cc32c9ac7949132a6d867a330e3622e",
      "transactionType": "CALL",
      "contractName": "EAS",
      "contractAddress": "0xb101275a60d8bfb14529c421899ad7ca1ae5b5fc",
      "function": "attest((bytes32,(address,uint64,bool,bytes32,bytes,uint256)))",
      "arguments": [
        "(0xbcd7561083784f9b5a1c2b3ddb7aa9db263d43c58f7374cfa4875646824a47de, (0x6cfD0753EC4da15Dcb418E11e921C0665c1d1cBf, 0, true, 0x0000000000000000000000000000000000000000000000000000000000000000, 0x527573740000000000000000000000000000000000000000000000000000000000000000000000000000000000000000000000000000000000000000000000400000000000000000000000000000000000000000000000000000000000000017536177207468656d20636f64696e6720696e2052757374000000000000000000, 0))"
      ],
      "transaction": {
        "from": "0x6cfd0753ec4da15dcb418e11e921c0665c1d1cbf",
        "to": "0xb101275a60d8bfb14529c421899ad7ca1ae5b5fc",
        "gas": "0x92a44",
        "value": "0x0",
        "input": "0xf17325e70000000000000000000000000000000000000000000000000000000000000020bcd7561083784f9b5a1c2b3ddb7aa9db263d43c58f7374cfa4875646824a47de00000000000000000000000000000000000000000000000000000000000000400000000000000000000000006cfd0753ec4da15dcb418e11e921c0665c1d1cbf00000000000000000000000000000000000000000000000000000000000000000000000000000000000000000000000000000000000000000000000000000001000000000000000000000000000000000000000000000000000000000000000000000000000000000000000000000000000000000000000000000000000000c000000000000000000000000000000000000000000000000000000000000000000000000000000000000000000000000000000000000000000000000000000080527573740000000000000000000000000000000000000000000000000000000000000000000000000000000000000000000000000000000000000000000000400000000000000000000000000000000000000000000000000000000000000017536177207468656d20636f64696e6720696e2052757374000000000000000000",
        "nonce": "0x53",
        "chainId": "0x13882"
      },
      "additionalContracts": [],
      "isFixedGasLimit": false
    }
  ],
  "receipts": [
    {
      "status": "0x1",
      "cumulativeGasUsed": "0x107a6a",
      "logs": [
        {
          "address": "0x4649490b118389d0be8f48b8953efb235d8cb545",
          "topics": [
            "0x8be0079c531659141344cd1fd0a4f28419497f9722a3daafe3b4186f6b6457e0",
            "0x0000000000000000000000000000000000000000000000000000000000000000",
            "0x0000000000000000000000006cfd0753ec4da15dcb418e11e921c0665c1d1cbf"
          ],
          "data": "0x",
          "blockHash": "0xdb51c3bacde11d57c781f6bcc1c2dafa11fa049b5ef3a0386f7f9ad0f4141235",
          "blockNumber": "0x1b46ef3",
          "blockTimestamp": "0x6909fbed",
          "transactionHash": "0xef9d70568de2281d3f3471667de3ab255534c523fcebe779a2d423720b604880",
          "transactionIndex": "0x0",
          "logIndex": "0x0",
          "removed": false
        },
        {
          "address": "0x0000000000000000000000000000000000001010",
          "topics": [
            "0x4dfe1bbbcf077ddc3e01291eea2d5c70c2b422b415d95645b9adcfd678cb1d63",
            "0x0000000000000000000000000000000000000000000000000000000000001010",
            "0x0000000000000000000000006cfd0753ec4da15dcb418e11e921c0665c1d1cbf",
            "0x0000000000000000000000007ee41d8a25641000661b1ef5e6ae8a00400466b0"
          ],
          "data": "0x00000000000000000000000000000000000000000000000000bfd4cd95e608000000000000000000000000000000000000000000000000052d62726b142d3ff900000000000000000000000000000000000000000000093c1fe98de091f4a3020000000000000000000000000000000000000000000000052ca29d9d7e4737f900000000000000000000000000000000000000000000093c20a962ae27daab02",
          "blockHash": "0xdb51c3bacde11d57c781f6bcc1c2dafa11fa049b5ef3a0386f7f9ad0f4141235",
          "blockNumber": "0x1b46ef3",
          "blockTimestamp": "0x6909fbed",
          "transactionHash": "0xef9d70568de2281d3f3471667de3ab255534c523fcebe779a2d423720b604880",
          "transactionIndex": "0x0",
          "logIndex": "0x1",
          "removed": false
        }
      ],
      "logsBloom": "0x00000000000000000000000000000000000000000000000000800000000000000004000000000000000000010040000000008000000000000000000000000000000000000000000000000000000000800001000000000000000100000000000000000000020000000000000000000800000000000000000080000800000000400000000000000000020000000400000000000000000100000000000000000000200000000000000000000000000000000000000000000000000000000000004000000000000000000001000000000000000000400000000000300000000020000000000000000000000000000000000000000000000000000000000000100000",
      "type": "0x2",
      "transactionHash": "0xef9d70568de2281d3f3471667de3ab255534c523fcebe779a2d423720b604880",
      "transactionIndex": "0x0",
      "blockHash": "0xdb51c3bacde11d57c781f6bcc1c2dafa11fa049b5ef3a0386f7f9ad0f4141235",
      "blockNumber": "0x1b46ef3",
      "gasUsed": "0x107a6a",
      "effectiveGasPrice": "0xba43b743f",
      "from": "0x6cfd0753ec4da15dcb418e11e921c0665c1d1cbf",
      "to": "0x4e59b44847b379578588920ca78fbf26c0b4956c",
      "contractAddress": "0x4649490b118389d0be8f48b8953efb235d8cb545"
    },
    {
      "status": "0x1",
      "cumulativeGasUsed": "0x18b7dd",
      "logs": [
        {
          "address": "0x0000000000000000000000000000000000001010",
          "topics": [
            "0x4dfe1bbbcf077ddc3e01291eea2d5c70c2b422b415d95645b9adcfd678cb1d63",
            "0x0000000000000000000000000000000000000000000000000000000000001010",
            "0x0000000000000000000000006cfd0753ec4da15dcb418e11e921c0665c1d1cbf",
            "0x0000000000000000000000007ee41d8a25641000661b1ef5e6ae8a00400466b0"
          ],
          "data": "0x000000000000000000000000000000000000000000000000005fed3891591c000000000000000000000000000000000000000000000000052ca29d9d7a3917e300000000000000000000000000000000000000000000093c20a962ae27daab020000000000000000000000000000000000000000000000052c42b064e8dffbe300000000000000000000000000000000000000000000093c21094fe6b933c702",
          "blockHash": "0xdb51c3bacde11d57c781f6bcc1c2dafa11fa049b5ef3a0386f7f9ad0f4141235",
          "blockNumber": "0x1b46ef3",
          "blockTimestamp": "0x6909fbed",
          "transactionHash": "0x1441a182605be12251f5006f3955f7dcfce6426aa817983cc52511a8cce52a45",
          "transactionIndex": "0x1",
          "logIndex": "0x2",
          "removed": false
        }
      ],
      "logsBloom": "0x00000000000000000000000000000000000000000000000000000000000000000000000000000000000000010000000000008000000000000000000000000000000000000000000000000000000000800000000000000000000100000000000000000000000000000000000000000000000000000000000080000000000000000000000000000000020000000400000000000000000100000000000000000000200000000000000000000000000000000000000000000000000000000000004000000000000000000001000000000000000000400000000000300000000000000000000000000000000000000000000000000000000000000000000000100000",
      "type": "0x2",
      "transactionHash": "0x1441a182605be12251f5006f3955f7dcfce6426aa817983cc52511a8cce52a45",
      "transactionIndex": "0x1",
      "blockHash": "0xdb51c3bacde11d57c781f6bcc1c2dafa11fa049b5ef3a0386f7f9ad0f4141235",
      "blockNumber": "0x1b46ef3",
      "gasUsed": "0x83d73",
      "effectiveGasPrice": "0xba43b743f",
      "from": "0x6cfd0753ec4da15dcb418e11e921c0665c1d1cbf",
      "to": "0x4e59b44847b379578588920ca78fbf26c0b4956c",
      "contractAddress": "0x94f5f12be60a338d263882a1a49e81ca8a0c30f4"
    },
    {
      "status": "0x1",
      "cumulativeGasUsed": "0x3062b6",
      "logs": [
        {
          "address": "0x0000000000000000000000000000000000001010",
          "topics": [
            "0x4dfe1bbbcf077ddc3e01291eea2d5c70c2b422b415d95645b9adcfd678cb1d63",
            "0x0000000000000000000000000000000000000000000000000000000000001010",
            "0x0000000000000000000000006cfd0753ec4da15dcb418e11e921c0665c1d1cbf",
            "0x0000000000000000000000007ee41d8a25641000661b1ef5e6ae8a00400466b0"
          ],
          "data": "0x000000000000000000000000000000000000000000000000011386451d6d54000000000000000000000000000000000000000000000000052c42b064e6d8dc9600000000000000000000000000000000000000000000093c21094fe6b933c7020000000000000000000000000000000000000000000000052b2f2a1fc96b889600000000000000000000000000000000000000000000093c221cd62bd6a11b02",
          "blockHash": "0xdb51c3bacde11d57c781f6bcc1c2dafa11fa049b5ef3a0386f7f9ad0f4141235",
          "blockNumber": "0x1b46ef3",
          "blockTimestamp": "0x6909fbed",
          "transactionHash": "0x94deaec6aaa037d9de3dd41baebcd9eb515c6249ffdeff3a6eb49a4440c26498",
          "transactionIndex": "0x2",
          "logIndex": "0x3",
          "removed": false
        }
      ],
      "logsBloom": "0x00000000000000000000000000000000000000000000000000000000000000000000000000000000000000010000000000008000000000000000000000000000000000000000000000000000000000800000000000000000000100000000000000000000000000000000000000000000000000000000000080000000000000000000000000000000020000000400000000000000000100000000000000000000200000000000000000000000000000000000000000000000000000000000004000000000000000000001000000000000000000400000000000300000000000000000000000000000000000000000000000000000000000000000000000100000",
      "type": "0x2",
      "transactionHash": "0x94deaec6aaa037d9de3dd41baebcd9eb515c6249ffdeff3a6eb49a4440c26498",
      "transactionIndex": "0x2",
      "blockHash": "0xdb51c3bacde11d57c781f6bcc1c2dafa11fa049b5ef3a0386f7f9ad0f4141235",
      "blockNumber": "0x1b46ef3",
      "gasUsed": "0x17aad9",
      "effectiveGasPrice": "0xba43b743f",
      "from": "0x6cfd0753ec4da15dcb418e11e921c0665c1d1cbf",
      "to": "0x4e59b44847b379578588920ca78fbf26c0b4956c",
      "contractAddress": "0x8b481fb56b133b590348b2b3b1d3ae2fce0d4324"
    },
    {
      "status": "0x1",
      "cumulativeGasUsed": "0x30d431",
      "logs": [
        {
          "address": "0x4649490b118389d0be8f48b8953efb235d8cb545",
          "topics": [
            "0x8be0079c531659141344cd1fd0a4f28419497f9722a3daafe3b4186f6b6457e0",
            "0x0000000000000000000000006cfd0753ec4da15dcb418e11e921c0665c1d1cbf",
            "0x0000000000000000000000008b481fb56b133b590348b2b3b1d3ae2fce0d4324"
          ],
          "data": "0x",
          "blockHash": "0xdb51c3bacde11d57c781f6bcc1c2dafa11fa049b5ef3a0386f7f9ad0f4141235",
          "blockNumber": "0x1b46ef3",
          "blockTimestamp": "0x6909fbed",
          "transactionHash": "0xbb3b1c2030c8a76f9742eda835a3e011e257b8c001b5956438834bfc0db7556f",
          "transactionIndex": "0x3",
          "logIndex": "0x4",
          "removed": false
        },
        {
          "address": "0x0000000000000000000000000000000000001010",
          "topics": [
            "0x4dfe1bbbcf077ddc3e01291eea2d5c70c2b422b415d95645b9adcfd678cb1d63",
            "0x0000000000000000000000000000000000000000000000000000000000001010",
            "0x0000000000000000000000006cfd0753ec4da15dcb418e11e921c0665c1d1cbf",
            "0x0000000000000000000000007ee41d8a25641000661b1ef5e6ae8a00400466b0"
          ],
          "data": "0x0000000000000000000000000000000000000000000000000005291626c4bc000000000000000000000000000000000000000000000000052b2f2a1fc3987d2f00000000000000000000000000000000000000000000093c221cd62bd6a11b020000000000000000000000000000000000000000000000052b2a01099cd3c12f00000000000000000000000000000000000000000000093c2221ff41fd65d702",
          "blockHash": "0xdb51c3bacde11d57c781f6bcc1c2dafa11fa049b5ef3a0386f7f9ad0f4141235",
          "blockNumber": "0x1b46ef3",
          "blockTimestamp": "0x6909fbed",
          "transactionHash": "0xbb3b1c2030c8a76f9742eda835a3e011e257b8c001b5956438834bfc0db7556f",
          "transactionIndex": "0x3",
          "logIndex": "0x5",
          "removed": false
        }
      ],
      "logsBloom": "0x00000200000000000000000000000000000000000000000000800000000000000004000000000000000000010040000000008000000000000000000000000000000000000000000000000000000000800001000000000000000100000000000000000000000000000000000000000000000000000000000080000800000000400000000000000000020000000400000000000000000100040000000000000000200000000000000000000000000000000000000000000000000000000000004000000000000000000001000000000000000000400000000000300000000000000000000000000000000000000000000000000000000000000000000000100000",
      "type": "0x2",
      "transactionHash": "0xbb3b1c2030c8a76f9742eda835a3e011e257b8c001b5956438834bfc0db7556f",
      "transactionIndex": "0x3",
      "blockHash": "0xdb51c3bacde11d57c781f6bcc1c2dafa11fa049b5ef3a0386f7f9ad0f4141235",
      "blockNumber": "0x1b46ef3",
      "gasUsed": "0x717b",
      "effectiveGasPrice": "0xba43b743f",
      "from": "0x6cfd0753ec4da15dcb418e11e921c0665c1d1cbf",
      "to": "0x4649490b118389d0be8f48b8953efb235d8cb545",
      "contractAddress": null
    },
    {
      "status": "0x1",
      "cumulativeGasUsed": "0x32f502",
      "logs": [
        {
          "address": "0x23c5701a1bda89c61d181bd79e5203c730708ae7",
          "topics": [
            "0xd0b86852e21f9e5fa4bc3b0cff9757ffe243d50c4b43968a42202153d651ea5e",
            "0xbcd7561083784f9b5a1c2b3ddb7aa9db263d43c58f7374cfa4875646824a47de",
            "0x0000000000000000000000006cfd0753ec4da15dcb418e11e921c0665c1d1cbf"
          ],
          "data": "0x0000000000000000000000000000000000000000000000000000000000000020bcd7561083784f9b5a1c2b3ddb7aa9db263d43c58f7374cfa4875646824a47de0000000000000000000000008b481fb56b133b590348b2b3b1d3ae2fce0d4324000000000000000000000000000000000000000000000000000000000000000100000000000000000000000000000000000000000000000000000000000000800000000000000000000000000000000000000000000000000000000000000026627974657333322062616467654e616d652c206279746573206a757374696669636174696f6e0000000000000000000000000000000000000000000000000000",
          "blockHash": "0xdb51c3bacde11d57c781f6bcc1c2dafa11fa049b5ef3a0386f7f9ad0f4141235",
          "blockNumber": "0x1b46ef3",
          "blockTimestamp": "0x6909fbed",
          "transactionHash": "0xdd692eacd075605cb97c087b7802b46847cf88aa49fb8f74acf51875445d48f4",
          "transactionIndex": "0x4",
          "logIndex": "0x6",
          "removed": false
        },
        {
          "address": "0x0000000000000000000000000000000000001010",
          "topics": [
            "0x4dfe1bbbcf077ddc3e01291eea2d5c70c2b422b415d95645b9adcfd678cb1d63",
            "0x0000000000000000000000000000000000000000000000000000000000001010",
            "0x0000000000000000000000006cfd0753ec4da15dcb418e11e921c0665c1d1cbf",
            "0x0000000000000000000000007ee41d8a25641000661b1ef5e6ae8a00400466b0"
          ],
          "data": "0x0000000000000000000000000000000000000000000000000018c67f6b09b4000000000000000000000000000000000000000000000000052b2a01099cb7d3ea00000000000000000000000000000000000000000000093c2221ff41fd65d7020000000000000000000000000000000000000000000000052b113a8a31ae1fea00000000000000000000000000000000000000000000093c223ac5c1686f8b02",
          "blockHash": "0xdb51c3bacde11d57c781f6bcc1c2dafa11fa049b5ef3a0386f7f9ad0f4141235",
          "blockNumber": "0x1b46ef3",
          "blockTimestamp": "0x6909fbed",
          "transactionHash": "0xdd692eacd075605cb97c087b7802b46847cf88aa49fb8f74acf51875445d48f4",
          "transactionIndex": "0x4",
          "logIndex": "0x7",
          "removed": false
        }
      ],
      "logsBloom": "0x00000000000000000000000000000000000000000000000000000000000800000000000000000000000000010000100000008000000000000020000000000000000000000040000000000000000000800000000000000000000100000000000000000000000000000000000000000000000000000000000080000000000000000000000000000000020002000400000000000000000100800000000000000000200000000000000010000000000000000000000000800000000000000000004000000000000000000001000000000000000000400000000000300000000000000000000000000000000000000000000000000000000000000000000000100020",
      "type": "0x2",
      "transactionHash": "0xdd692eacd075605cb97c087b7802b46847cf88aa49fb8f74acf51875445d48f4",
      "transactionIndex": "0x4",
      "blockHash": "0xdb51c3bacde11d57c781f6bcc1c2dafa11fa049b5ef3a0386f7f9ad0f4141235",
      "blockNumber": "0x1b46ef3",
      "gasUsed": "0x220d1",
      "effectiveGasPrice": "0xba43b743f",
      "from": "0x6cfd0753ec4da15dcb418e11e921c0665c1d1cbf",
      "to": "0x23c5701a1bda89c61d181bd79e5203c730708ae7",
      "contractAddress": null
    },
    {
      "status": "0x1",
      "cumulativeGasUsed": "0x355c85",
      "logs": [
        {
          "address": "0x94f5f12be60a338d263882a1a49e81ca8a0c30f4",
          "topics": [
            "0x7d648d3c718d609c93c086fd770653e10a64c5afe41e0b1b0b4bb76bba24c479",
            "0x5275737400000000000000000000000000000000000000000000000000000000",
            "0x0000000000000000000000006cfd0753ec4da15dcb418e11e921c0665c1d1cbf"
          ],
          "data": "0x4b6e6f7720686f7720746f20636f646520696e20527573740000000000000000",
          "blockHash": "0xdb51c3bacde11d57c781f6bcc1c2dafa11fa049b5ef3a0386f7f9ad0f4141235",
          "blockNumber": "0x1b46ef3",
          "blockTimestamp": "0x6909fbed",
          "transactionHash": "0x86f4af9f6ab97a78528bf72757fc0ffcda86c4dac1dfab1e0ff6338f2df634ac",
          "transactionIndex": "0x5",
          "logIndex": "0x8",
          "removed": false
        },
        {
          "address": "0x0000000000000000000000000000000000001010",
          "topics": [
            "0x4dfe1bbbcf077ddc3e01291eea2d5c70c2b422b415d95645b9adcfd678cb1d63",
            "0x0000000000000000000000000000000000000000000000000000000000001010",
            "0x0000000000000000000000006cfd0753ec4da15dcb418e11e921c0665c1d1cbf",
            "0x0000000000000000000000007ee41d8a25641000661b1ef5e6ae8a00400466b0"
          ],
          "data": "0x000000000000000000000000000000000000000000000000001bfd7fde185c000000000000000000000000000000000000000000000000052b113a8a31280c7b00000000000000000000000000000000000000000000093c223ac5c1686f8b020000000000000000000000000000000000000000000000052af53d0a530fb07b00000000000000000000000000000000000000000000093c2256c3414687e702",
          "blockHash": "0xdb51c3bacde11d57c781f6bcc1c2dafa11fa049b5ef3a0386f7f9ad0f4141235",
          "blockNumber": "0x1b46ef3",
          "blockTimestamp": "0x6909fbed",
          "transactionHash": "0x86f4af9f6ab97a78528bf72757fc0ffcda86c4dac1dfab1e0ff6338f2df634ac",
          "transactionIndex": "0x5",
          "logIndex": "0x9",
          "removed": false
        }
      ],
      "logsBloom": "0x00000000000000000000000000000200000000000000000000000000000000000010000000200000000000010000000000008000000000000000000000000000000000000000000000000000000000800000000000000000000100000001000000000000000000000000000020000000000000000000000080000000000000000001000000000000020000000400000000000000000100000000000000000000200100000000000000000000000000000000000000000000000000000000004000000000000000000001000000000000000008400000000000300000000000400000000000000000000000000000000000000000000000000000000000100000",
      "type": "0x2",
      "transactionHash": "0x86f4af9f6ab97a78528bf72757fc0ffcda86c4dac1dfab1e0ff6338f2df634ac",
      "transactionIndex": "0x5",
      "blockHash": "0xdb51c3bacde11d57c781f6bcc1c2dafa11fa049b5ef3a0386f7f9ad0f4141235",
      "blockNumber": "0x1b46ef3",
      "gasUsed": "0x26783",
      "effectiveGasPrice": "0xba43b743f",
      "from": "0x6cfd0753ec4da15dcb418e11e921c0665c1d1cbf",
      "to": "0x94f5f12be60a338d263882a1a49e81ca8a0c30f4",
      "contractAddress": null
    },
    {
      "status": "0x1",
      "cumulativeGasUsed": "0x37819c",
      "logs": [
        {
          "address": "0x94f5f12be60a338d263882a1a49e81ca8a0c30f4",
          "topics": [
            "0x7d648d3c718d609c93c086fd770653e10a64c5afe41e0b1b0b4bb76bba24c479",
            "0x536f6c6964697479000000000000000000000000000000000000000000000000",
            "0x0000000000000000000000006cfd0753ec4da15dcb418e11e921c0665c1d1cbf"
          ],
          "data": "0x4b6e6f7720686f7720746f20636f646520696e20536f6c696469747900000000",
          "blockHash": "0xdb51c3bacde11d57c781f6bcc1c2dafa11fa049b5ef3a0386f7f9ad0f4141235",
          "blockNumber": "0x1b46ef3",
          "blockTimestamp": "0x6909fbed",
          "transactionHash": "0x8fb85f2b92b97755a0fb270f1e796d8ba117c614b88df43ae96636eb7870779a",
          "transactionIndex": "0x6",
          "logIndex": "0xa",
          "removed": false
        },
        {
          "address": "0x0000000000000000000000000000000000001010",
          "topics": [
            "0x4dfe1bbbcf077ddc3e01291eea2d5c70c2b422b415d95645b9adcfd678cb1d63",
            "0x0000000000000000000000000000000000000000000000000000000000001010",
            "0x0000000000000000000000006cfd0753ec4da15dcb418e11e921c0665c1d1cbf",
            "0x0000000000000000000000007ee41d8a25641000661b1ef5e6ae8a00400466b0"
          ],
          "data": "0x0000000000000000000000000000000000000000000000000018f83f411b6c000000000000000000000000000000000000000000000000052af53d0a5278373e00000000000000000000000000000000000000000000093c2256c3414687e7020000000000000000000000000000000000000000000000052adc44cb115ccb3e00000000000000000000000000000000000000000000093c226fbb8087a35302",
          "blockHash": "0xdb51c3bacde11d57c781f6bcc1c2dafa11fa049b5ef3a0386f7f9ad0f4141235",
          "blockNumber": "0x1b46ef3",
          "blockTimestamp": "0x6909fbed",
          "transactionHash": "0x8fb85f2b92b97755a0fb270f1e796d8ba117c614b88df43ae96636eb7870779a",
          "transactionIndex": "0x6",
          "logIndex": "0xb",
          "removed": false
        }
      ],
      "logsBloom": "0x00000000008000000000000000000200000000000000000000000000000000000010000000200000000000010000000000008000000000000000000000000000000000000000000000000000000000800000000000000000000100000000000000000000000000000000000000000000000000000000000080000000000000000001000000000000020000000400000000000000000100000000000000000000200100000000000000000000000000000000000000000000000040000000004000000000000000000001000000000000000000400000000000300000000000400000040000000000000000000000000000000000000000000000000000100000",
      "type": "0x2",
      "transactionHash": "0x8fb85f2b92b97755a0fb270f1e796d8ba117c614b88df43ae96636eb7870779a",
      "transactionIndex": "0x6",
      "blockHash": "0xdb51c3bacde11d57c781f6bcc1c2dafa11fa049b5ef3a0386f7f9ad0f4141235",
      "blockNumber": "0x1b46ef3",
      "gasUsed": "0x22517",
      "effectiveGasPrice": "0xba43b743f",
      "from": "0x6cfd0753ec4da15dcb418e11e921c0665c1d1cbf",
      "to": "0x94f5f12be60a338d263882a1a49e81ca8a0c30f4",
      "contractAddress": null
    },
    {
      "status": "0x1",
      "cumulativeGasUsed": "0x39a6e3",
      "logs": [
        {
          "address": "0x94f5f12be60a338d263882a1a49e81ca8a0c30f4",
          "topics": [
            "0x7d648d3c718d609c93c086fd770653e10a64c5afe41e0b1b0b4bb76bba24c479",
            "0x5479706553637269707400000000000000000000000000000000000000000000",
            "0x0000000000000000000000006cfd0753ec4da15dcb418e11e921c0665c1d1cbf"
          ],
          "data": "0x4b6e6f7720686f7720746f20636f646520696e20547970655363726970740000",
          "blockHash": "0xdb51c3bacde11d57c781f6bcc1c2dafa11fa049b5ef3a0386f7f9ad0f4141235",
          "blockNumber": "0x1b46ef3",
          "blockTimestamp": "0x6909fbed",
          "transactionHash": "0x77b17b5c357de698a208737e19b7dd5799037d9443c24588a4c8b03d6b7f5999",
          "transactionIndex": "0x7",
          "logIndex": "0xc",
          "removed": false
        },
        {
          "address": "0x0000000000000000000000000000000000001010",
          "topics": [
            "0x4dfe1bbbcf077ddc3e01291eea2d5c70c2b422b415d95645b9adcfd678cb1d63",
            "0x0000000000000000000000000000000000000000000000000000000000001010",
            "0x0000000000000000000000006cfd0753ec4da15dcb418e11e921c0665c1d1cbf",
            "0x0000000000000000000000007ee41d8a25641000661b1ef5e6ae8a00400466b0"
          ],
          "data": "0x0000000000000000000000000000000000000000000000000018fa6e0c412c000000000000000000000000000000000000000000000000052adc44cb10d5aa9500000000000000000000000000000000000000000000093c226fbb8087a353020000000000000000000000000000000000000000000000052ac34a5d04947e9500000000000000000000000000000000000000000000093c2288b5ee93e47f02",
          "blockHash": "0xdb51c3bacde11d57c781f6bcc1c2dafa11fa049b5ef3a0386f7f9ad0f4141235",
          "blockNumber": "0x1b46ef3",
          "blockTimestamp": "0x6909fbed",
          "transactionHash": "0x77b17b5c357de698a208737e19b7dd5799037d9443c24588a4c8b03d6b7f5999",
          "transactionIndex": "0x7",
          "logIndex": "0xd",
          "removed": false
        }
      ],
      "logsBloom": "0x00000000000000000000000000000200000000000000000000000000000000000010000000200000000000010000000000008000000000000000000000000000000000000000000000000000000001800000000000000000000100000000000000000000000000000000000000000000002000000000000080000000000000000001000000000000020000000400000000000000000100000000000000000000200100000000000000000000000000000000000000000000000000000000004000000000000000000001000000000000000000400000004000300000000000400000000000000000000000000000000000000000000000000000000000100000",
      "type": "0x2",
      "transactionHash": "0x77b17b5c357de698a208737e19b7dd5799037d9443c24588a4c8b03d6b7f5999",
      "transactionIndex": "0x7",
      "blockHash": "0xdb51c3bacde11d57c781f6bcc1c2dafa11fa049b5ef3a0386f7f9ad0f4141235",
      "blockNumber": "0x1b46ef3",
      "gasUsed": "0x22547",
      "effectiveGasPrice": "0xba43b743f",
      "from": "0x6cfd0753ec4da15dcb418e11e921c0665c1d1cbf",
      "to": "0x94f5f12be60a338d263882a1a49e81ca8a0c30f4",
      "contractAddress": null
    },
    {
      "status": "0x1",
      "cumulativeGasUsed": "0x4174ee",
      "logs": [
        {
          "address": "0x0000000000000000000000000000000000001010",
          "topics": [
            "0x4dfe1bbbcf077ddc3e01291eea2d5c70c2b422b415d95645b9adcfd678cb1d63",
            "0x0000000000000000000000000000000000000000000000000000000000001010",
            "0x0000000000000000000000006cfd0753ec4da15dcb418e11e921c0665c1d1cbf",
            "0x0000000000000000000000007ee41d8a25641000661b1ef5e6ae8a00400466b0"
          ],
          "data": "0x000000000000000000000000000000000000000000000000005adc4811e5fc000000000000000000000000000000000000000000000000052ac34a5d040d521c00000000000000000000000000000000000000000000093c2288b5ee93e47f020000000000000000000000000000000000000000000000052a686e14f227561c00000000000000000000000000000000000000000000093c22e39236a5ca7b02",
          "blockHash": "0xdb51c3bacde11d57c781f6bcc1c2dafa11fa049b5ef3a0386f7f9ad0f4141235",
          "blockNumber": "0x1b46ef3",
          "blockTimestamp": "0x6909fbed",
          "transactionHash": "0x2f800dfe1dbd156bfe12dd57e80ab841cf0a5024c9ed962823d295faebd449b0",
          "transactionIndex": "0x8",
          "logIndex": "0xe",
          "removed": false
        }
      ],
      "logsBloom": "0x00000000000000000000000000000000000000000000000000000000000000000000000000000000000000010000000000008000000000000000000000000000000000000000000000000000000000800000000000000000000100000000000000000000000000000000000000000000000000000000000080000000000000000000000000000000020000000400000000000000000100000000000000000000200000000000000000000000000000000000000000000000000000000000004000000000000000000001000000000000000000400000000000300000000000000000000000000000000000000000000000000000000000000000000000100000",
      "type": "0x2",
      "transactionHash": "0x2f800dfe1dbd156bfe12dd57e80ab841cf0a5024c9ed962823d295faebd449b0",
      "transactionIndex": "0x8",
      "blockHash": "0xdb51c3bacde11d57c781f6bcc1c2dafa11fa049b5ef3a0386f7f9ad0f4141235",
      "blockNumber": "0x1b46ef3",
      "gasUsed": "0x7ce0b",
      "effectiveGasPrice": "0xba43b743f",
      "from": "0x6cfd0753ec4da15dcb418e11e921c0665c1d1cbf",
      "to": "0x4e59b44847b379578588920ca78fbf26c0b4956c",
      "contractAddress": "0x435576dfa5b151a6a1c8a4b5eddfb4ceed5a55af"
    },
    {
      "status": "0x1",
      "cumulativeGasUsed": "0x47b937",
      "logs": [
        {
          "address": "0xb101275a60d8bfb14529c421899ad7ca1ae5b5fc",
          "topics": [
            "0x8bf46bf4cfd674fa735a3d63ec1c9ad4153f033c290341f3a588b75685141b35",
            "0x0000000000000000000000006cfd0753ec4da15dcb418e11e921c0665c1d1cbf",
            "0x0000000000000000000000006cfd0753ec4da15dcb418e11e921c0665c1d1cbf",
            "0xbcd7561083784f9b5a1c2b3ddb7aa9db263d43c58f7374cfa4875646824a47de"
          ],
          "data": "0x06f466380bdb9ad8c5bb6f022ac90b93dbbacf4f6fee2276b55964ac2fc53f5e",
          "blockHash": "0xdb51c3bacde11d57c781f6bcc1c2dafa11fa049b5ef3a0386f7f9ad0f4141235",
          "blockNumber": "0x1b46ef3",
          "blockTimestamp": "0x6909fbed",
          "transactionHash": "0x7b85ac16958cee6192204c8b5e32d41b4cc32c9ac7949132a6d867a330e3622e",
          "transactionIndex": "0x9",
          "logIndex": "0xf",
          "removed": false
        },
        {
          "address": "0x4649490b118389d0be8f48b8953efb235d8cb545",
          "topics": [
            "0xddf252ad1be2c89b69c2b068fc378daa952ba7f163c4a11628f55a4df523b3ef",
            "0x0000000000000000000000000000000000000000000000000000000000000000",
            "0x0000000000000000000000006cfd0753ec4da15dcb418e11e921c0665c1d1cbf"
          ],
          "data": "0x0000000000000000000000000000000000000000000000008ac7230489e80000",
          "blockHash": "0xdb51c3bacde11d57c781f6bcc1c2dafa11fa049b5ef3a0386f7f9ad0f4141235",
          "blockNumber": "0x1b46ef3",
          "blockTimestamp": "0x6909fbed",
          "transactionHash": "0x7b85ac16958cee6192204c8b5e32d41b4cc32c9ac7949132a6d867a330e3622e",
          "transactionIndex": "0x9",
          "logIndex": "0x10",
          "removed": false
        },
        {
          "address": "0x0000000000000000000000000000000000001010",
          "topics": [
            "0x4dfe1bbbcf077ddc3e01291eea2d5c70c2b422b415d95645b9adcfd678cb1d63",
            "0x0000000000000000000000000000000000000000000000000000000000001010",
            "0x0000000000000000000000006cfd0753ec4da15dcb418e11e921c0665c1d1cbf",
            "0x0000000000000000000000007ee41d8a25641000661b1ef5e6ae8a00400466b0"
          ],
          "data": "0x0000000000000000000000000000000000000000000000000048f45657c414000000000000000000000000000000000000000000000000052a686e14f03ba16700000000000000000000000000000000000000000000093c22e39236a5ca7b020000000000000000000000000000000000000000000000052a1f79be98778d6700000000000000000000000000000000000000000000093c232c868cfd8e8f02",
          "blockHash": "0xdb51c3bacde11d57c781f6bcc1c2dafa11fa049b5ef3a0386f7f9ad0f4141235",
          "blockNumber": "0x1b46ef3",
          "blockTimestamp": "0x6909fbed",
          "transactionHash": "0x7b85ac16958cee6192204c8b5e32d41b4cc32c9ac7949132a6d867a330e3622e",
          "transactionIndex": "0x9",
          "logIndex": "0x11",
          "removed": false
        }
      ],
      "logsBloom": "0x00000000000000000000000040000000000000000000000000000000000008000004000000000000000000010040100000008000000000000000000000000000000000000000000000000009000000800000000000000000000100000000000000000000020000000000000000000800000000000000000080000810000000000000000000000000020000000400000000000000000100000000000000000000200000000000000000000000000000000000000010800000000000000000004000000002000000000001000000000000000000400004000000300000000020000000000000000000000000000000000000000000000000000000000000100024",
      "type": "0x2",
      "transactionHash": "0x7b85ac16958cee6192204c8b5e32d41b4cc32c9ac7949132a6d867a330e3622e",
      "transactionIndex": "0x9",
      "blockHash": "0xdb51c3bacde11d57c781f6bcc1c2dafa11fa049b5ef3a0386f7f9ad0f4141235",
      "blockNumber": "0x1b46ef3",
      "gasUsed": "0x64449",
      "effectiveGasPrice": "0xba43b743f",
      "from": "0x6cfd0753ec4da15dcb418e11e921c0665c1d1cbf",
      "to": "0xb101275a60d8bfb14529c421899ad7ca1ae5b5fc",
      "contractAddress": null
    }
  ],
  "libraries": [],
  "pending": [],
  "returns": {},
  "timestamp": 1762262098319,
  "chain": 80002,
  "commit": "95cd03f"
}