{
  "transactions": [
    {
      "hash": "0xbdbf12cb765ca363d23ef04efaaed2ec09cdd2ebe6a9ab8d07e48a38bdfbbf0b",
      "transactionType": "CREATE2",
      "contractName": "TheGuildActivityToken",
      "contractAddress": "0x5db978bc69e54250f577ed343273508baea136cd",
      "function": null,
      "arguments": [
        "0xb101275a60d8bfb14529C421899aD7CA1Ae5B5Fc"
      ],
      "transaction": {
        "from": "0x6cfd0753ec4da15dcb418e11e921c0665c1d1cbf",
        "to": "0x4e59b44847b379578588920ca78fbf26c0b4956c",
        "gas": "0x2e0ece",
        "value": "0x0",
        "input": "0x7468656775696c645f765f302e312e3100000000000000000000000000000000610100604052348015610010575f5ffd5b50604051612ba9380380612ba983398181016040528101906100329190610334565b80600160045f336040518060400160405280601581526020017f5468654775696c644163746976697479546f6b656e00000000000000000000008152506040518060400160405280600381526020017f544741000000000000000000000000000000000000000000000000000000000081525081600390816100b4919061059c565b5080600490816100c4919061059c565b5050505f73ffffffffffffffffffffffffffffffffffffffff168173ffffffffffffffffffffffffffffffffffffffff1603610137575f6040517f1e4fbdf700000000000000000000000000000000000000000000000000000000815260040161012e919061067a565b60405180910390fd5b6101468161020260201b60201c565b5082608081815250508160a081815250508060c081815250505050505f73ffffffffffffffffffffffffffffffffffffffff168173ffffffffffffffffffffffffffffffffffffffff16036101c7576040517f83780ffe00000000000000000000000000000000000000000000000000000000815260040160405180910390fd5b8073ffffffffffffffffffffffffffffffffffffffff1660e08173ffffffffffffffffffffffffffffffffffffffff16815250505050610693565b5f60055f9054906101000a900473ffffffffffffffffffffffffffffffffffffffff1690508160055f6101000a81548173ffffffffffffffffffffffffffffffffffffffff021916908373ffffffffffffffffffffffffffffffffffffffff1602179055508173ffffffffffffffffffffffffffffffffffffffff168173ffffffffffffffffffffffffffffffffffffffff167f8be0079c531659141344cd1fd0a4f28419497f9722a3daafe3b4186f6b6457e060405160405180910390a35050565b5f5ffd5b5f73ffffffffffffffffffffffffffffffffffffffff82169050919050565b5f6102f2826102c9565b9050919050565b5f610303826102e8565b9050919050565b610313816102f9565b811461031d575f5ffd5b50565b5f8151905061032e8161030a565b92915050565b5f60208284031215610349576103486102c5565b5b5f61035684828501610320565b91505092915050565b5f81519050919050565b7f4e487b71000000000000000000000000000000000000000000000000000000005f52604160045260245ffd5b7f4e487b71000000000000000000000000000000000000000000000000000000005f52602260045260245ffd5b5f60028204905060018216806103da57607f821691505b6020821081036103ed576103ec610396565b5b50919050565b5f819050815f5260205f209050919050565b5f6020601f8301049050919050565b5f82821b905092915050565b5f6008830261044f7fffffffffffffffffffffffffffffffffffffffffffffffffffffffffffffffff82610414565b6104598683610414565b95508019841693508086168417925050509392505050565b5f819050919050565b5f819050919050565b5f61049d61049861049384610471565b61047a565b610471565b9050919050565b5f819050919050565b6104b683610483565b6104ca6104c2826104a4565b848454610420565b825550505050565b5f5f905090565b6104e16104d2565b6104ec8184846104ad565b505050565b5b8181101561050f576105045f826104d9565b6001810190506104f2565b5050565b601f82111561055457610525816103f3565b61052e84610405565b8101602085101561053d578190505b61055161054985610405565b8301826104f1565b50505b505050565b5f82821c905092915050565b5f6105745f1984600802610559565b1980831691505092915050565b5f61058c8383610565565b9150826002028217905092915050565b6105a58261035f565b67ffffffffffffffff8111156105be576105bd610369565b5b6105c882546103c3565b6105d3828285610513565b5f60209050601f831160018114610604575f84156105f2578287015190505b6105fc8582610581565b865550610663565b601f198416610612866103f3565b5f5b8281101561063957848901518255600182019150602085019450602081019050610614565b868310156106565784890151610652601f891682610565565b8355505b6001600288020188555050505b505050505050565b610674816102e8565b82525050565b5f60208201905061068d5f83018461066b565b92915050565b60805160a05160c05160e0516124dc6106cd5f395f8181610a51015261109a01525f6106bb01525f61069201525f61066901526124dc5ff3fe60806040526004361061012d575f3560e01c80638da5cb5b116100aa578063a9059cbb1161006e578063a9059cbb1461042a578063ce46e04614610466578063dd62ed3e14610490578063e49617e1146104cc578063e60c3505146104fc578063f2fde38b1461052c57610172565b80638da5cb5b1461034057806391db0b7e1461036a57806395d89b411461039a578063962ea8ae146103c45780639df97fd7146103ee57610172565b806340c10f19116100f157806340c10f191461026c57806354fd4d501461029457806370a08231146102be578063715018a6146102fa57806388e5b2d91461031057610172565b806306fdde0314610176578063095ea7b3146101a057806318160ddd146101dc57806323b872dd14610206578063313ce5671461024257610172565b366101725761013a610554565b610170576040517f1574f9f300000000000000000000000000000000000000000000000000000000815260040160405180910390fd5b005b5f5ffd5b348015610181575f5ffd5b5061018a61055b565b60405161019791906117d8565b60405180910390f35b3480156101ab575f5ffd5b506101c660048036038101906101c19190611896565b6105eb565b6040516101d391906118ee565b60405180910390f35b3480156101e7575f5ffd5b506101f061060d565b6040516101fd9190611916565b60405180910390f35b348015610211575f5ffd5b5061022c6004803603810190610227919061192f565b610616565b60405161023991906118ee565b60405180910390f35b34801561024d575f5ffd5b50610256610644565b604051610263919061199a565b60405180910390f35b348015610277575f5ffd5b50610292600480360381019061028d9190611896565b61064c565b005b34801561029f575f5ffd5b506102a8610662565b6040516102b591906117d8565b60405180910390f35b3480156102c9575f5ffd5b506102e460048036038101906102df91906119b3565b610705565b6040516102f19190611916565b60405180910390f35b348015610305575f5ffd5b5061030e61074a565b005b61032a60048036038101906103259190611a94565b61075d565b60405161033791906118ee565b60405180910390f35b34801561034b575f5ffd5b50610354610870565b6040516103619190611b21565b60405180910390f35b610384600480360381019061037f9190611a94565b610898565b60405161039191906118ee565b60405180910390f35b3480156103a5575f5ffd5b506103ae6109ab565b6040516103bb91906117d8565b60405180910390f35b3480156103cf575f5ffd5b506103d8610a3b565b6040516103e59190611916565b60405180910390f35b3480156103f9575f5ffd5b50610414600480360381019061040f9190611b3a565b610a47565b6040516104219190611ce6565b60405180910390f35b348015610435575f5ffd5b50610450600480360381019061044b9190611896565b610b0d565b60405161045d91906118ee565b60405180910390f35b348015610471575f5ffd5b5061047a610554565b60405161048791906118ee565b60405180910390f35b34801561049b575f5ffd5b506104b660048036038101906104b19190611d06565b610b2f565b6040516104c39190611916565b60405180910390f35b6104e660048036038101906104e19190611d67565b610bb1565b6040516104f391906118ee565b60405180910390f35b61051660048036038101906105119190611d67565b610bcb565b60405161052391906118ee565b60405180910390f35b348015610537575f5ffd5b50610552600480360381019061054d91906119b3565b610be5565b005b5f5f905090565b60606003805461056a90611ddb565b80601f016020809104026020016040519081016040528092919081815260200182805461059690611ddb565b80156105e15780601f106105b8576101008083540402835291602001916105e1565b820191905f5260205f20905b8154815290600101906020018083116105c457829003601f168201915b5050505050905090565b5f5f6105f5610c69565b9050610602818585610c70565b600191505092915050565b5f600254905090565b5f5f610620610c69565b905061062d858285610c82565b610638858585610d15565b60019150509392505050565b5f6012905090565b610654610e05565b61065e8282610e8c565b5050565b606061068d7f0000000000000000000000000000000000000000000000000000000000000000610f0b565b6106b67f0000000000000000000000000000000000000000000000000000000000000000610f0b565b6106df7f0000000000000000000000000000000000000000000000000000000000000000610f0b565b6040516020016106f193929190611e8f565b604051602081830303815290604052905090565b5f5f5f8373ffffffffffffffffffffffffffffffffffffffff1673ffffffffffffffffffffffffffffffffffffffff1681526020019081526020015f20549050919050565b610752610e05565b61075b5f610fd5565b565b5f610766611098565b5f8585905090508383905081146107a9576040517f947d5a8400000000000000000000000000000000000000000000000000000000815260040160405180910390fd5b5f3490505f5f90505b82811015610860575f8686838181106107ce576107cd611ed5565b5b90506020020135905082811115610811576040517f1101129400000000000000000000000000000000000000000000000000000000815260040160405180910390fd5b61083f89898481811061082757610826611ed5565b5b90506020028101906108399190611f06565b8261111f565b61084f575f945050505050610868565b8083039250508060010190506107b2565b506001925050505b949350505050565b5f60055f9054906101000a900473ffffffffffffffffffffffffffffffffffffffff16905090565b5f6108a1611098565b5f8585905090508383905081146108e4576040517f947d5a8400000000000000000000000000000000000000000000000000000000815260040160405180910390fd5b5f3490505f5f90505b8281101561099b575f86868381811061090957610908611ed5565b5b9050602002013590508281111561094c576040517f1101129400000000000000000000000000000000000000000000000000000000815260040160405180910390fd5b61097a89898481811061096257610961611ed5565b5b90506020028101906109749190611f06565b8261112a565b61098a575f9450505050506109a3565b8083039250508060010190506108ed565b506001925050505b949350505050565b6060600480546109ba90611ddb565b80601f01602080910402602001604051908101604052809291908181526020018280546109e690611ddb565b8015610a315780601f10610a0857610100808354040283529160200191610a31565b820191905f5260205f20905b815481529060010190602001808311610a1457829003601f168201915b5050505050905090565b5f600680549050905090565b610a4f6116d2565b7f000000000000000000000000000000000000000000000000000000000000000073ffffffffffffffffffffffffffffffffffffffff1663a3112a6460068481548110610a9f57610a9e611ed5565b5b905f5260205f2001546040518263ffffffff1660e01b8152600401610ac49190611f3d565b5f60405180830381865afa158015610ade573d5f5f3e3d5ffd5b505050506040513d5f823e3d601f19601f82011682018060405250810190610b069190612219565b9050919050565b5f5f610b17610c69565b9050610b24818585610d15565b600191505092915050565b5f60015f8473ffffffffffffffffffffffffffffffffffffffff1673ffffffffffffffffffffffffffffffffffffffff1681526020019081526020015f205f8373ffffffffffffffffffffffffffffffffffffffff1673ffffffffffffffffffffffffffffffffffffffff1681526020019081526020015f2054905092915050565b5f610bba611098565b610bc4823461111f565b9050919050565b5f610bd4611098565b610bde823461112a565b9050919050565b610bed610e05565b5f73ffffffffffffffffffffffffffffffffffffffff168173ffffffffffffffffffffffffffffffffffffffff1603610c5d575f6040517f1e4fbdf7000000000000000000000000000000000000000000000000000000008152600401610c549190611b21565b60405180910390fd5b610c6681610fd5565b50565b5f33905090565b610c7d8383836001611199565b505050565b5f610c8d8484610b2f565b90507fffffffffffffffffffffffffffffffffffffffffffffffffffffffffffffffff811015610d0f5781811015610d00578281836040517ffb8f41b2000000000000000000000000000000000000000000000000000000008152600401610cf793929190612260565b60405180910390fd5b610d0e84848484035f611199565b5b50505050565b5f73ffffffffffffffffffffffffffffffffffffffff168373ffffffffffffffffffffffffffffffffffffffff1603610d85575f6040517f96c6fd1e000000000000000000000000000000000000000000000000000000008152600401610d7c9190611b21565b60405180910390fd5b5f73ffffffffffffffffffffffffffffffffffffffff168273ffffffffffffffffffffffffffffffffffffffff1603610df5575f6040517fec442f05000000000000000000000000000000000000000000000000000000008152600401610dec9190611b21565b60405180910390fd5b610e00838383611368565b505050565b610e0d610c69565b73ffffffffffffffffffffffffffffffffffffffff16610e2b610870565b73ffffffffffffffffffffffffffffffffffffffff1614610e8a57610e4e610c69565b6040517f118cdaa7000000000000000000000000000000000000000000000000000000008152600401610e819190611b21565b60405180910390fd5b565b5f73ffffffffffffffffffffffffffffffffffffffff168273ffffffffffffffffffffffffffffffffffffffff1603610efc575f6040517fec442f05000000000000000000000000000000000000000000000000000000008152600401610ef39190611b21565b60405180910390fd5b610f075f8383611368565b5050565b60605f6001610f1984611581565b0190505f8167ffffffffffffffff811115610f3757610f36611f5a565b5b6040519080825280601f01601f191660200182016040528015610f695781602001600182028036833780820191505090505b5090505f82602083010190505b600115610fca578080600190039150507f3031323334353637383961626364656600000000000000000000000000000000600a86061a8153600a8581610fbf57610fbe612295565b5b0494505f8503610f76575b819350505050919050565b5f60055f9054906101000a900473ffffffffffffffffffffffffffffffffffffffff1690508160055f6101000a81548173ffffffffffffffffffffffffffffffffffffffff021916908373ffffffffffffffffffffffffffffffffffffffff1602179055508173ffffffffffffffffffffffffffffffffffffffff168173ffffffffffffffffffffffffffffffffffffffff167f8be0079c531659141344cd1fd0a4f28419497f9722a3daafe3b4186f6b6457e060405160405180910390a35050565b7f000000000000000000000000000000000000000000000000000000000000000073ffffffffffffffffffffffffffffffffffffffff163373ffffffffffffffffffffffffffffffffffffffff161461111d576040517f4ca8886700000000000000000000000000000000000000000000000000000000815260040160405180910390fd5b565b5f6001905092915050565b5f6111668360e001602081019061114191906119b3565b611149610644565b600a611155919061241e565b600a6111619190612468565b610e8c565b6006835f0135908060018154018082558091505060019003905f5260205f20015f90919091909150556001905092915050565b5f73ffffffffffffffffffffffffffffffffffffffff168473ffffffffffffffffffffffffffffffffffffffff1603611209575f6040517fe602df050000000000000000000000000000000000000000000000000000000081526004016112009190611b21565b60405180910390fd5b5f73ffffffffffffffffffffffffffffffffffffffff168373ffffffffffffffffffffffffffffffffffffffff1603611279575f6040517f94280d620000000000000000000000000000000000000000000000000000000081526004016112709190611b21565b60405180910390fd5b8160015f8673ffffffffffffffffffffffffffffffffffffffff1673ffffffffffffffffffffffffffffffffffffffff1681526020019081526020015f205f8573ffffffffffffffffffffffffffffffffffffffff1673ffffffffffffffffffffffffffffffffffffffff1681526020019081526020015f20819055508015611362578273ffffffffffffffffffffffffffffffffffffffff168473ffffffffffffffffffffffffffffffffffffffff167f8c5be1e5ebec7d5bd14f71427d1e84f3dd0314c0f7b2291e5b200ac8c7c3b925846040516113599190611916565b60405180910390a35b50505050565b5f73ffffffffffffffffffffffffffffffffffffffff168373ffffffffffffffffffffffffffffffffffffffff16036113b8578060025f8282546113ac91906124a9565b92505081905550611486565b5f5f5f8573ffffffffffffffffffffffffffffffffffffffff1673ffffffffffffffffffffffffffffffffffffffff1681526020019081526020015f2054905081811015611441578381836040517fe450d38c00000000000000000000000000000000000000000000000000000000815260040161143893929190612260565b60405180910390fd5b8181035f5f8673ffffffffffffffffffffffffffffffffffffffff1673ffffffffffffffffffffffffffffffffffffffff1681526020019081526020015f2081905550505b5f73ffffffffffffffffffffffffffffffffffffffff168273ffffffffffffffffffffffffffffffffffffffff16036114cd578060025f8282540392505081905550611517565b805f5f8473ffffffffffffffffffffffffffffffffffffffff1673ffffffffffffffffffffffffffffffffffffffff1681526020019081526020015f205f82825401925050819055505b8173ffffffffffffffffffffffffffffffffffffffff168373ffffffffffffffffffffffffffffffffffffffff167fddf252ad1be2c89b69c2b068fc378daa952ba7f163c4a11628f55a4df523b3ef836040516115749190611916565b60405180910390a3505050565b5f5f5f90507a184f03e93ff9f4daa797ed6e38ed64bf6a1f01000000000000000083106115dd577a184f03e93ff9f4daa797ed6e38ed64bf6a1f01000000000000000083816115d3576115d2612295565b5b0492506040810190505b6d04ee2d6d415b85acef8100000000831061161a576d04ee2d6d415b85acef810000000083816116105761160f612295565b5b0492506020810190505b662386f26fc10000831061164957662386f26fc10000838161163f5761163e612295565b5b0492506010810190505b6305f5e1008310611672576305f5e100838161166857611667612295565b5b0492506008810190505b612710831061169757612710838161168d5761168c612295565b5b0492506004810190505b606483106116ba57606483816116b0576116af612295565b5b0492506002810190505b600a83106116c9576001810190505b80915050919050565b6040518061014001604052805f81526020015f81526020015f67ffffffffffffffff1681526020015f67ffffffffffffffff1681526020015f67ffffffffffffffff1681526020015f81526020015f73ffffffffffffffffffffffffffffffffffffffff1681526020015f73ffffffffffffffffffffffffffffffffffffffff1681526020015f15158152602001606081525090565b5f81519050919050565b5f82825260208201905092915050565b8281835e5f83830152505050565b5f601f19601f8301169050919050565b5f6117aa82611768565b6117b48185611772565b93506117c4818560208601611782565b6117cd81611790565b840191505092915050565b5f6020820190508181035f8301526117f081846117a0565b905092915050565b5f604051905090565b5f5ffd5b5f5ffd5b5f73ffffffffffffffffffffffffffffffffffffffff82169050919050565b5f61183282611809565b9050919050565b61184281611828565b811461184c575f5ffd5b50565b5f8135905061185d81611839565b92915050565b5f819050919050565b61187581611863565b811461187f575f5ffd5b50565b5f813590506118908161186c565b92915050565b5f5f604083850312156118ac576118ab611801565b5b5f6118b98582860161184f565b92505060206118ca85828601611882565b9150509250929050565b5f8115159050919050565b6118e8816118d4565b82525050565b5f6020820190506119015f8301846118df565b92915050565b61191081611863565b82525050565b5f6020820190506119295f830184611907565b92915050565b5f5f5f6060848603121561194657611945611801565b5b5f6119538682870161184f565b93505060206119648682870161184f565b925050604061197586828701611882565b9150509250925092565b5f60ff82169050919050565b6119948161197f565b82525050565b5f6020820190506119ad5f83018461198b565b92915050565b5f602082840312156119c8576119c7611801565b5b5f6119d58482850161184f565b91505092915050565b5f5ffd5b5f5ffd5b5f5ffd5b5f5f83601f8401126119ff576119fe6119de565b5b8235905067ffffffffffffffff811115611a1c57611a1b6119e2565b5b602083019150836020820283011115611a3857611a376119e6565b5b9250929050565b5f5f83601f840112611a5457611a536119de565b5b8235905067ffffffffffffffff811115611a7157611a706119e2565b5b602083019150836020820283011115611a8d57611a8c6119e6565b5b9250929050565b5f5f5f5f60408587031215611aac57611aab611801565b5b5f85013567ffffffffffffffff811115611ac957611ac8611805565b5b611ad5878288016119ea565b9450945050602085013567ffffffffffffffff811115611af857611af7611805565b5b611b0487828801611a3f565b925092505092959194509250565b611b1b81611828565b82525050565b5f602082019050611b345f830184611b12565b92915050565b5f60208284031215611b4f57611b4e611801565b5b5f611b5c84828501611882565b91505092915050565b5f819050919050565b611b7781611b65565b82525050565b5f67ffffffffffffffff82169050919050565b611b9981611b7d565b82525050565b611ba881611828565b82525050565b611bb7816118d4565b82525050565b5f81519050919050565b5f82825260208201905092915050565b5f611be182611bbd565b611beb8185611bc7565b9350611bfb818560208601611782565b611c0481611790565b840191505092915050565b5f61014083015f830151611c255f860182611b6e565b506020830151611c386020860182611b6e565b506040830151611c4b6040860182611b90565b506060830151611c5e6060860182611b90565b506080830151611c716080860182611b90565b5060a0830151611c8460a0860182611b6e565b5060c0830151611c9760c0860182611b9f565b5060e0830151611caa60e0860182611b9f565b50610100830151611cbf610100860182611bae565b50610120830151848203610120860152611cd98282611bd7565b9150508091505092915050565b5f6020820190508181035f830152611cfe8184611c0f565b905092915050565b5f5f60408385031215611d1c57611d1b611801565b5b5f611d298582860161184f565b9250506020611d3a8582860161184f565b9150509250929050565b5f5ffd5b5f6101408284031215611d5e57611d5d611d44565b5b81905092915050565b5f60208284031215611d7c57611d7b611801565b5b5f82013567ffffffffffffffff811115611d9957611d98611805565b5b611da584828501611d48565b91505092915050565b7f4e487b71000000000000000000000000000000000000000000000000000000005f52602260045260245ffd5b5f6002820490506001821680611df257607f821691505b602082108103611e0557611e04611dae565b5b50919050565b5f81905092915050565b5f611e1f82611768565b611e298185611e0b565b9350611e39818560208601611782565b80840191505092915050565b7f2e000000000000000000000000000000000000000000000000000000000000005f82015250565b5f611e79600183611e0b565b9150611e8482611e45565b600182019050919050565b5f611e9a8286611e15565b9150611ea582611e6d565b9150611eb18285611e15565b9150611ebc82611e6d565b9150611ec88284611e15565b9150819050949350505050565b7f4e487b71000000000000000000000000000000000000000000000000000000005f52603260045260245ffd5b5f5ffd5b5f8235600161014003833603038112611f2257611f21611f02565b5b80830191505092915050565b611f3781611b65565b82525050565b5f602082019050611f505f830184611f2e565b92915050565b5f5ffd5b7f4e487b71000000000000000000000000000000000000000000000000000000005f52604160045260245ffd5b611f9082611790565b810181811067ffffffffffffffff82111715611faf57611fae611f5a565b5b80604052505050565b5f611fc16117f8565b9050611fcd8282611f87565b919050565b5f5ffd5b611fdf81611b65565b8114611fe9575f5ffd5b50565b5f81519050611ffa81611fd6565b92915050565b61200981611b7d565b8114612013575f5ffd5b50565b5f8151905061202481612000565b92915050565b5f8151905061203881611839565b92915050565b612047816118d4565b8114612051575f5ffd5b50565b5f815190506120628161203e565b92915050565b5f5ffd5b5f67ffffffffffffffff82111561208657612085611f5a565b5b61208f82611790565b9050602081019050919050565b5f6120ae6120a98461206c565b611fb8565b9050828152602081018484840111156120ca576120c9612068565b5b6120d5848285611782565b509392505050565b5f82601f8301126120f1576120f06119de565b5b815161210184826020860161209c565b91505092915050565b5f61014082840312156121205761211f611f56565b5b61212b610140611fb8565b90505f61213a84828501611fec565b5f83015250602061214d84828501611fec565b602083015250604061216184828501612016565b604083015250606061217584828501612016565b606083015250608061218984828501612016565b60808301525060a061219d84828501611fec565b60a08301525060c06121b18482850161202a565b60c08301525060e06121c58482850161202a565b60e0830152506101006121da84828501612054565b6101008301525061012082015167ffffffffffffffff811115612200576121ff611fd2565b5b61220c848285016120dd565b6101208301525092915050565b5f6020828403121561222e5761222d611801565b5b5f82015167ffffffffffffffff81111561224b5761224a611805565b5b6122578482850161210a565b91505092915050565b5f6060820190506122735f830186611b12565b6122806020830185611907565b61228d6040830184611907565b949350505050565b7f4e487b71000000000000000000000000000000000000000000000000000000005f52601260045260245ffd5b7f4e487b71000000000000000000000000000000000000000000000000000000005f52601160045260245ffd5b5f8160011c9050919050565b5f5f8291508390505b6001851115612344578086048111156123205761231f6122c2565b5b600185161561232f5780820291505b808102905061233d856122ef565b9450612304565b94509492505050565b5f8261235c5760019050612417565b81612369575f9050612417565b816001811461237f5760028114612389576123b8565b6001915050612417565b60ff84111561239b5761239a6122c2565b5b8360020a9150848211156123b2576123b16122c2565b5b50612417565b5060208310610133831016604e8410600b84101617156123ed5782820a9050838111156123e8576123e76122c2565b5b612417565b6123fa84848460016122fb565b92509050818404811115612411576124106122c2565b5b81810290505b9392505050565b5f61242882611863565b91506124338361197f565b92506124607fffffffffffffffffffffffffffffffffffffffffffffffffffffffffffffffff848461234d565b905092915050565b5f61247282611863565b915061247d83611863565b925082820261248b81611863565b915082820484148315176124a2576124a16122c2565b5b5092915050565b5f6124b382611863565b91506124be83611863565b92508282019050808211156124d6576124d56122c2565b5b9291505056000000000000000000000000b101275a60d8bfb14529c421899ad7ca1ae5b5fc",
        "nonce": "0x33",
        "chainId": "0x13882"
      },
      "additionalContracts": [],
      "isFixedGasLimit": false
    },
    {
      "hash": "0xef7b432d25576094ce98ec92b8991f5de2cf449b41bf9f1d8c415e9d44a122bc",
      "transactionType": "CALL",
      "contractName": "SchemaRegistry",
      "contractAddress": "0x23c5701a1bda89c61d181bd79e5203c730708ae7",
      "function": "register(string,address,bool)",
      "arguments": [
        "bytes32 badgeName, bytes32 justification",
        "0x5dB978BC69e54250f577ED343273508BaEA136cD",
        "true"
      ],
      "transaction": {
        "from": "0x6cfd0753ec4da15dcb418e11e921c0665c1d1cbf",
        "to": "0x23c5701a1bda89c61d181bd79e5203c730708ae7",
        "gas": "0x31cee",
        "value": "0x0",
        "input": "0x60d7a27800000000000000000000000000000000000000000000000000000000000000600000000000000000000000005db978bc69e54250f577ed343273508baea136cd00000000000000000000000000000000000000000000000000000000000000010000000000000000000000000000000000000000000000000000000000000028627974657333322062616467654e616d652c2062797465733332206a757374696669636174696f6e000000000000000000000000000000000000000000000000",
        "nonce": "0x34",
        "chainId": "0x13882"
      },
      "additionalContracts": [],
      "isFixedGasLimit": false
    },
    {
      "hash": "0x6a626cff8fabb6295a442fd41de09da6bca48d0d4e00390de53187af42be7dfa",
      "transactionType": "CREATE2",
      "contractName": "TheGuildBadgeRegistry",
      "contractAddress": "0xc142ab6b4688b7b81cb4cc8b305f517bba3bfd25",
      "function": null,
      "arguments": null,
      "transaction": {
        "from": "0x6cfd0753ec4da15dcb418e11e921c0665c1d1cbf",
        "to": "0x4e59b44847b379578588920ca78fbf26c0b4956c",
        "gas": "0xc0d11",
        "value": "0x0",
        "input": "0x7468656775696c645f765f302e312e31000000000000000000000000000000006080604052348015600e575f5ffd5b506108cf8061001c5f395ff3fe608060405234801561000f575f5ffd5b5060043610610060575f3560e01c80633580dbc71461006457806338a699a4146100805780634d3c901d146100b057806377002fcf146100e257806381407b1b14610114578063a490a69714610144575b5f5ffd5b61007e6004803603810190610079919061059c565b610162565b005b61009a600480360381019061009591906105da565b610346565b6040516100a7919061061f565b60405180910390f35b6100ca60048036038101906100c5919061066b565b61036c565b6040516100d9939291906106e4565b60405180910390f35b6100fc60048036038101906100f791906105da565b610432565b60405161010b939291906106e4565b60405180910390f35b61012e6004803603810190610129919061066b565b610534565b60405161013b9190610719565b60405180910390f35b61014c610559565b6040516101599190610741565b60405180910390f35b5f5f1b82036101a6576040517f08c379a000000000000000000000000000000000000000000000000000000000815260040161019d906107b4565b60405180910390fd5b60015f8381526020019081526020015f205f9054906101000a900460ff1615610204576040517f08c379a00000000000000000000000000000000000000000000000000000000081526004016101fb9061081c565b60405180910390fd5b5f60405180606001604052808481526020018381526020013373ffffffffffffffffffffffffffffffffffffffff168152509050805f5f8581526020019081526020015f205f820151815f0155602082015181600101556040820151816002015f6101000a81548173ffffffffffffffffffffffffffffffffffffffff021916908373ffffffffffffffffffffffffffffffffffffffff1602179055509050506001805f8581526020019081526020015f205f6101000a81548160ff021916908315150217905550600283908060018154018082558091505060019003905f5260205f20015f90919091909150553373ffffffffffffffffffffffffffffffffffffffff16837f7d648d3c718d609c93c086fd770653e10a64c5afe41e0b1b0b4bb76bba24c479846040516103399190610719565b60405180910390a3505050565b5f60015f8381526020019081526020015f205f9054906101000a900460ff169050919050565b5f5f5f5f600285815481106103845761038361083a565b5b905f5260205f20015490505f5f5f8381526020019081526020015f206040518060600160405290815f820154815260200160018201548152602001600282015f9054906101000a900473ffffffffffffffffffffffffffffffffffffffff1673ffffffffffffffffffffffffffffffffffffffff1673ffffffffffffffffffffffffffffffffffffffff16815250509050805f01518160200151826040015194509450945050509193909250565b5f5f5f60015f8581526020019081526020015f205f9054906101000a900460ff16610492576040517f08c379a0000000000000000000000000000000000000000000000000000000008152600401610489906108b1565b60405180910390fd5b5f5f5f8681526020019081526020015f206040518060600160405290815f820154815260200160018201548152602001600282015f9054906101000a900473ffffffffffffffffffffffffffffffffffffffff1673ffffffffffffffffffffffffffffffffffffffff1673ffffffffffffffffffffffffffffffffffffffff16815250509050805f015181602001518260400151935093509350509193909250565b5f600282815481106105495761054861083a565b5b905f5260205f2001549050919050565b5f600280549050905090565b5f5ffd5b5f819050919050565b61057b81610569565b8114610585575f5ffd5b50565b5f8135905061059681610572565b92915050565b5f5f604083850312156105b2576105b1610565565b5b5f6105bf85828601610588565b92505060206105d085828601610588565b9150509250929050565b5f602082840312156105ef576105ee610565565b5b5f6105fc84828501610588565b91505092915050565b5f8115159050919050565b61061981610605565b82525050565b5f6020820190506106325f830184610610565b92915050565b5f819050919050565b61064a81610638565b8114610654575f5ffd5b50565b5f8135905061066581610641565b92915050565b5f602082840312156106805761067f610565565b5b5f61068d84828501610657565b91505092915050565b61069f81610569565b82525050565b5f73ffffffffffffffffffffffffffffffffffffffff82169050919050565b5f6106ce826106a5565b9050919050565b6106de816106c4565b82525050565b5f6060820190506106f75f830186610696565b6107046020830185610696565b61071160408301846106d5565b949350505050565b5f60208201905061072c5f830184610696565b92915050565b61073b81610638565b82525050565b5f6020820190506107545f830184610732565b92915050565b5f82825260208201905092915050565b7f454d5054595f4e414d45000000000000000000000000000000000000000000005f82015250565b5f61079e600a8361075a565b91506107a98261076a565b602082019050919050565b5f6020820190508181035f8301526107cb81610792565b9050919050565b7f4455504c49434154455f4e414d450000000000000000000000000000000000005f82015250565b5f610806600e8361075a565b9150610811826107d2565b602082019050919050565b5f6020820190508181035f830152610833816107fa565b9050919050565b7f4e487b71000000000000000000000000000000000000000000000000000000005f52603260045260245ffd5b7f4e4f545f464f554e4400000000000000000000000000000000000000000000005f82015250565b5f61089b60098361075a565b91506108a682610867565b602082019050919050565b5f6020820190508181035f8301526108c88161088f565b905091905056",
        "nonce": "0x35",
        "chainId": "0x13882"
      },
      "additionalContracts": [],
      "isFixedGasLimit": false
    },
    {
      "hash": "0x11723d2420d34a2d898241b8c685fd282178d81cdace7f9357d6612c610d8413",
      "transactionType": "CALL",
      "contractName": "TheGuildBadgeRegistry",
      "contractAddress": "0xc142ab6b4688b7b81cb4cc8b305f517bba3bfd25",
      "function": "createBadge(bytes32,bytes32)",
      "arguments": [
        "0x5275737400000000000000000000000000000000000000000000000000000000",
        "0x4b6e6f7720686f7720746f20636f646520696e20527573740000000000000000"
      ],
      "transaction": {
        "from": "0x6cfd0753ec4da15dcb418e11e921c0665c1d1cbf",
        "to": "0xc142ab6b4688b7b81cb4cc8b305f517bba3bfd25",
        "gas": "0x3842f",
        "value": "0x0",
        "input": "0x3580dbc752757374000000000000000000000000000000000000000000000000000000004b6e6f7720686f7720746f20636f646520696e20527573740000000000000000",
        "nonce": "0x36",
        "chainId": "0x13882"
      },
      "additionalContracts": [],
      "isFixedGasLimit": false
    },
    {
      "hash": "0x03aefb38bbaa5e9e80b02c73dbcd27844bed30ec58644b93367bba17a221fae9",
      "transactionType": "CALL",
      "contractName": "TheGuildBadgeRegistry",
      "contractAddress": "0xc142ab6b4688b7b81cb4cc8b305f517bba3bfd25",
      "function": "createBadge(bytes32,bytes32)",
      "arguments": [
        "0x536f6c6964697479000000000000000000000000000000000000000000000000",
        "0x4b6e6f7720686f7720746f20636f646520696e20536f6c696469747900000000"
      ],
      "transaction": {
        "from": "0x6cfd0753ec4da15dcb418e11e921c0665c1d1cbf",
        "to": "0xc142ab6b4688b7b81cb4cc8b305f517bba3bfd25",
        "gas": "0x2f66d",
        "value": "0x0",
        "input": "0x3580dbc7536f6c69646974790000000000000000000000000000000000000000000000004b6e6f7720686f7720746f20636f646520696e20536f6c696469747900000000",
        "nonce": "0x37",
        "chainId": "0x13882"
      },
      "additionalContracts": [],
      "isFixedGasLimit": false
    },
    {
      "hash": "0x876454e34990e4c6a0e33c99b3d12bbde417f2ac81f77b86238deecfa570b697",
      "transactionType": "CALL",
      "contractName": "TheGuildBadgeRegistry",
      "contractAddress": "0xc142ab6b4688b7b81cb4cc8b305f517bba3bfd25",
      "function": "createBadge(bytes32,bytes32)",
      "arguments": [
        "0x5479706553637269707400000000000000000000000000000000000000000000",
        "0x4b6e6f7720686f7720746f20636f646520696e20547970655363726970740000"
      ],
      "transaction": {
        "from": "0x6cfd0753ec4da15dcb418e11e921c0665c1d1cbf",
        "to": "0xc142ab6b4688b7b81cb4cc8b305f517bba3bfd25",
        "gas": "0x2f6af",
        "value": "0x0",
        "input": "0x3580dbc754797065536372697074000000000000000000000000000000000000000000004b6e6f7720686f7720746f20636f646520696e20547970655363726970740000",
        "nonce": "0x38",
        "chainId": "0x13882"
      },
      "additionalContracts": [],
      "isFixedGasLimit": false
    },
    {
      "hash": "0x27a8cfd0d315979d620c5145bee8dd32b6069d28b03b840aafb19786e2367243",
      "transactionType": "CALL",
      "contractName": "EAS",
      "contractAddress": "0xb101275a60d8bfb14529c421899ad7ca1ae5b5fc",
      "function": "attest((bytes32,(address,uint64,bool,bytes32,bytes,uint256)))",
      "arguments": [
        "(0xb167f07504166f717f2a2710dbcfbfdf8fad6e8c6128c1a7fa80768f61b1d0b2, (0x6cfD0753EC4da15Dcb418E11e921C0665c1d1cBf, 0, true, 0x0000000000000000000000000000000000000000000000000000000000000000, 0x5275737400000000000000000000000000000000000000000000000000000000536177207468656d20636f64696e6720696e2052757374000000000000000000, 0))"
      ],
      "transaction": {
        "from": "0x6cfd0753ec4da15dcb418e11e921c0665c1d1cbf",
        "to": "0xb101275a60d8bfb14529c421899ad7ca1ae5b5fc",
        "gas": "0x6d1d8",
        "value": "0x0",
        "input": "0xf17325e70000000000000000000000000000000000000000000000000000000000000020b167f07504166f717f2a2710dbcfbfdf8fad6e8c6128c1a7fa80768f61b1d0b200000000000000000000000000000000000000000000000000000000000000400000000000000000000000006cfd0753ec4da15dcb418e11e921c0665c1d1cbf00000000000000000000000000000000000000000000000000000000000000000000000000000000000000000000000000000000000000000000000000000001000000000000000000000000000000000000000000000000000000000000000000000000000000000000000000000000000000000000000000000000000000c0000000000000000000000000000000000000000000000000000000000000000000000000000000000000000000000000000000000000000000000000000000405275737400000000000000000000000000000000000000000000000000000000536177207468656d20636f64696e6720696e2052757374000000000000000000",
        "nonce": "0x39",
        "chainId": "0x13882"
      },
      "additionalContracts": [],
      "isFixedGasLimit": false
    }
  ],
  "receipts": [
    {
      "status": "0x1",
      "cumulativeGasUsed": "0x236efb",
      "logs": [
        {
          "address": "0x5db978bc69e54250f577ed343273508baea136cd",
          "topics": [
            "0x8be0079c531659141344cd1fd0a4f28419497f9722a3daafe3b4186f6b6457e0",
            "0x0000000000000000000000000000000000000000000000000000000000000000",
            "0x0000000000000000000000004e59b44847b379578588920ca78fbf26c0b4956c"
          ],
          "data": "0x",
          "blockHash": "0x53e9621f8eda6b5d2f5576d04f16a490a2fa70650290b8d1af7e7bef7658f2e0",
          "blockNumber": "0x194c54a",
          "transactionHash": "0xbdbf12cb765ca363d23ef04efaaed2ec09cdd2ebe6a9ab8d07e48a38bdfbbf0b",
          "transactionIndex": "0x1",
          "logIndex": "0x4",
          "removed": false
        },
        {
          "address": "0x0000000000000000000000000000000000001010",
          "topics": [
            "0x4dfe1bbbcf077ddc3e01291eea2d5c70c2b422b415d95645b9adcfd678cb1d63",
            "0x0000000000000000000000000000000000000000000000000000000000001010",
            "0x0000000000000000000000006cfd0753ec4da15dcb418e11e921c0665c1d1cbf",
            "0x0000000000000000000000007ee41d8a25641000661b1ef5e6ae8a00400466b0"
          ],
          "data": "0x000000000000000000000000000000000000000000000000010da012fe6e8c100000000000000000000000000000000000000000000000054e0a7373e916c573000000000000000000000000000000000000000000000106510b53fc233746cf0000000000000000000000000000000000000000000000054cfcd360eaa839630000000000000000000000000000000000000000000001065218f40f21a5d2df",
          "blockHash": "0x53e9621f8eda6b5d2f5576d04f16a490a2fa70650290b8d1af7e7bef7658f2e0",
          "blockNumber": "0x194c54a",
          "transactionHash": "0xbdbf12cb765ca363d23ef04efaaed2ec09cdd2ebe6a9ab8d07e48a38bdfbbf0b",
          "transactionIndex": "0x1",
          "logIndex": "0x5",
          "removed": false
        }
      ],
      "logsBloom": "0x00000000000000000000000000000000000000000000000000800000000800000000000000100000000000010000000000008000000000000000000000000000000000000000000000000000000000800001000000000000000100000000000000000000020000000000000000000800000000000000000080000000000000400000000000000000020000000400000000000000001100000000000000000000200000000001000000000000000000000000000000000000000000000000004000000000000000000001000000000000000000400000000000300000000020000000000000000000000000000000002080000000000000000000000000100000",
      "type": "0x2",
      "transactionHash": "0xbdbf12cb765ca363d23ef04efaaed2ec09cdd2ebe6a9ab8d07e48a38bdfbbf0b",
      "transactionIndex": "0x1",
      "blockHash": "0x53e9621f8eda6b5d2f5576d04f16a490a2fa70650290b8d1af7e7bef7658f2e0",
      "blockNumber": "0x194c54a",
      "gasUsed": "0x215855",
      "effectiveGasPrice": "0x815feac0f",
      "from": "0x6cfd0753ec4da15dcb418e11e921c0665c1d1cbf",
      "to": "0x4e59b44847b379578588920ca78fbf26c0b4956c",
      "contractAddress": "0x5db978bc69e54250f577ed343273508baea136cd"
    },
    {
      "status": "0x1",
      "cumulativeGasUsed": "0x258fe4",
      "logs": [
        {
          "address": "0x23c5701a1bda89c61d181bd79e5203c730708ae7",
          "topics": [
            "0xd0b86852e21f9e5fa4bc3b0cff9757ffe243d50c4b43968a42202153d651ea5e",
            "0xb167f07504166f717f2a2710dbcfbfdf8fad6e8c6128c1a7fa80768f61b1d0b2",
            "0x0000000000000000000000006cfd0753ec4da15dcb418e11e921c0665c1d1cbf"
          ],
          "data": "0x0000000000000000000000000000000000000000000000000000000000000020b167f07504166f717f2a2710dbcfbfdf8fad6e8c6128c1a7fa80768f61b1d0b20000000000000000000000005db978bc69e54250f577ed343273508baea136cd000000000000000000000000000000000000000000000000000000000000000100000000000000000000000000000000000000000000000000000000000000800000000000000000000000000000000000000000000000000000000000000028627974657333322062616467654e616d652c2062797465733332206a757374696669636174696f6e000000000000000000000000000000000000000000000000",
          "blockHash": "0x53e9621f8eda6b5d2f5576d04f16a490a2fa70650290b8d1af7e7bef7658f2e0",
          "blockNumber": "0x194c54a",
          "transactionHash": "0xef7b432d25576094ce98ec92b8991f5de2cf449b41bf9f1d8c415e9d44a122bc",
          "transactionIndex": "0x2",
          "logIndex": "0x6",
          "removed": false
        },
        {
          "address": "0x0000000000000000000000000000000000001010",
          "topics": [
            "0x4dfe1bbbcf077ddc3e01291eea2d5c70c2b422b415d95645b9adcfd678cb1d63",
            "0x0000000000000000000000000000000000000000000000000000000000001010",
            "0x0000000000000000000000006cfd0753ec4da15dcb418e11e921c0665c1d1cbf",
            "0x0000000000000000000000007ee41d8a25641000661b1ef5e6ae8a00400466b0"
          ],
          "data": "0x0000000000000000000000000000000000000000000000000011361931e460500000000000000000000000000000000000000000000000054cfcd360e2737c780000000000000000000000000000000000000000000001065218f40f21a5d2df0000000000000000000000000000000000000000000000054ceb9d47b08f1c28000000000000000000000000000000000000000000000106522a2a28538a332f",
          "blockHash": "0x53e9621f8eda6b5d2f5576d04f16a490a2fa70650290b8d1af7e7bef7658f2e0",
          "blockNumber": "0x194c54a",
          "transactionHash": "0xef7b432d25576094ce98ec92b8991f5de2cf449b41bf9f1d8c415e9d44a122bc",
          "transactionIndex": "0x2",
          "logIndex": "0x7",
          "removed": false
        }
      ],
      "logsBloom": "0x00000000000000000000000000000000000000000000000000000000000800000000000000000000000000010000000000008000000000100020000000000000000000000040000000000000000000800000000000000000000100000000000000000000000000000000000000000000020000000000000080000000000000000000000000000000020002000400000000000000000100800000000000000000200000000000000010000000000000000000010000000000000000000000004000000000000000000001000000000000000000400000000000300000000000000000000000000000000000000000000000000000000000000000000000100000",
      "type": "0x2",
      "transactionHash": "0xef7b432d25576094ce98ec92b8991f5de2cf449b41bf9f1d8c415e9d44a122bc",
      "transactionIndex": "0x2",
      "blockHash": "0x53e9621f8eda6b5d2f5576d04f16a490a2fa70650290b8d1af7e7bef7658f2e0",
      "blockNumber": "0x194c54a",
      "gasUsed": "0x220e9",
      "effectiveGasPrice": "0x815feac0f",
      "from": "0x6cfd0753ec4da15dcb418e11e921c0665c1d1cbf",
      "to": "0x23c5701a1bda89c61d181bd79e5203c730708ae7",
      "contractAddress": null
    },
    {
      "status": "0x1",
      "cumulativeGasUsed": "0x2dcd57",
      "logs": [
        {
          "address": "0x0000000000000000000000000000000000001010",
          "topics": [
            "0x4dfe1bbbcf077ddc3e01291eea2d5c70c2b422b415d95645b9adcfd678cb1d63",
            "0x0000000000000000000000000000000000000000000000000000000000001010",
            "0x0000000000000000000000006cfd0753ec4da15dcb418e11e921c0665c1d1cbf",
            "0x0000000000000000000000007ee41d8a25641000661b1ef5e6ae8a00400466b0"
          ],
          "data": "0x0000000000000000000000000000000000000000000000000042a0d4eed7be700000000000000000000000000000000000000000000000054ceb9d47b00902d1000000000000000000000000000000000000000000000106522a2a28538a332f0000000000000000000000000000000000000000000000054ca8fc72c1314461000000000000000000000000000000000000000000000106526ccafd4261f19f",
          "blockHash": "0x53e9621f8eda6b5d2f5576d04f16a490a2fa70650290b8d1af7e7bef7658f2e0",
          "blockNumber": "0x194c54a",
          "transactionHash": "0x6a626cff8fabb6295a442fd41de09da6bca48d0d4e00390de53187af42be7dfa",
          "transactionIndex": "0x3",
          "logIndex": "0x8",
          "removed": false
        }
      ],
      "logsBloom": "0x00000000000000000000000000000000000000000000000000000000000000000000000000000000000000010000000000008000000000000000000000000000000000000000000000000000000000800000000000000000000100000000000000000000000000000000000000000000000000000000000080000000000000000000000000000000020000000400000000000000000100000000000000000000200000000000000000000000000000000000000000000000000000000000004000000000000000000001000000000000000000400000000000300000000000000000000000000000000000000000000000000000000000000000000000100000",
      "type": "0x2",
      "transactionHash": "0x6a626cff8fabb6295a442fd41de09da6bca48d0d4e00390de53187af42be7dfa",
      "transactionIndex": "0x3",
      "blockHash": "0x53e9621f8eda6b5d2f5576d04f16a490a2fa70650290b8d1af7e7bef7658f2e0",
      "blockNumber": "0x194c54a",
      "gasUsed": "0x83d73",
      "effectiveGasPrice": "0x815feac0f",
      "from": "0x6cfd0753ec4da15dcb418e11e921c0665c1d1cbf",
      "to": "0x4e59b44847b379578588920ca78fbf26c0b4956c",
      "contractAddress": "0xc142ab6b4688b7b81cb4cc8b305f517bba3bfd25"
    },
    {
      "status": "0x1",
      "cumulativeGasUsed": "0x3034da",
      "logs": [
        {
          "address": "0xc142ab6b4688b7b81cb4cc8b305f517bba3bfd25",
          "topics": [
            "0x7d648d3c718d609c93c086fd770653e10a64c5afe41e0b1b0b4bb76bba24c479",
            "0x5275737400000000000000000000000000000000000000000000000000000000",
            "0x0000000000000000000000006cfd0753ec4da15dcb418e11e921c0665c1d1cbf"
          ],
          "data": "0x4b6e6f7720686f7720746f20636f646520696e20527573740000000000000000",
          "blockHash": "0x53e9621f8eda6b5d2f5576d04f16a490a2fa70650290b8d1af7e7bef7658f2e0",
          "blockNumber": "0x194c54a",
          "transactionHash": "0x11723d2420d34a2d898241b8c685fd282178d81cdace7f9357d6612c610d8413",
          "transactionIndex": "0x4",
          "logIndex": "0x9",
          "removed": false
        },
        {
          "address": "0x0000000000000000000000000000000000001010",
          "topics": [
            "0x4dfe1bbbcf077ddc3e01291eea2d5c70c2b422b415d95645b9adcfd678cb1d63",
            "0x0000000000000000000000000000000000000000000000000000000000001010",
            "0x0000000000000000000000006cfd0753ec4da15dcb418e11e921c0665c1d1cbf",
            "0x0000000000000000000000007ee41d8a25641000661b1ef5e6ae8a00400466b0"
          ],
          "data": "0x000000000000000000000000000000000000000000000000001370fa10129b700000000000000000000000000000000000000000000000054ca8fc72bf2a2514000000000000000000000000000000000000000000000106526ccafd4261f19f0000000000000000000000000000000000000000000000054c958b78af1789a400000000000000000000000000000000000000000000010652803bf752748d0f",
          "blockHash": "0x53e9621f8eda6b5d2f5576d04f16a490a2fa70650290b8d1af7e7bef7658f2e0",
          "blockNumber": "0x194c54a",
          "transactionHash": "0x11723d2420d34a2d898241b8c685fd282178d81cdace7f9357d6612c610d8413",
          "transactionIndex": "0x4",
          "logIndex": "0xa",
          "removed": false
        }
      ],
      "logsBloom": "0x00000000000000000000040000000200000000000000000000000000000000000000000000000000000000010000000000008000000000000000000000000000000000000000000000000000000000800000000000000000000100000001000000000000000000000000000020000000000000000000000080000000000000000001000000000000020000000400000000000000000100000000000000000000200000000000000000000000000000000000000000000000000000000000004000000100000000000001000000000000010008400000000000300000000000400000000000000000000000000000000000000000000000000000000000100000",
      "type": "0x2",
      "transactionHash": "0x11723d2420d34a2d898241b8c685fd282178d81cdace7f9357d6612c610d8413",
      "transactionIndex": "0x4",
      "blockHash": "0x53e9621f8eda6b5d2f5576d04f16a490a2fa70650290b8d1af7e7bef7658f2e0",
      "blockNumber": "0x194c54a",
      "gasUsed": "0x26783",
      "effectiveGasPrice": "0x815feac0f",
      "from": "0x6cfd0753ec4da15dcb418e11e921c0665c1d1cbf",
      "to": "0xc142ab6b4688b7b81cb4cc8b305f517bba3bfd25",
      "contractAddress": null
    },
    {
      "status": "0x1",
      "cumulativeGasUsed": "0x3259f1",
      "logs": [
        {
          "address": "0xc142ab6b4688b7b81cb4cc8b305f517bba3bfd25",
          "topics": [
            "0x7d648d3c718d609c93c086fd770653e10a64c5afe41e0b1b0b4bb76bba24c479",
            "0x536f6c6964697479000000000000000000000000000000000000000000000000",
            "0x0000000000000000000000006cfd0753ec4da15dcb418e11e921c0665c1d1cbf"
          ],
          "data": "0x4b6e6f7720686f7720746f20636f646520696e20536f6c696469747900000000",
          "blockHash": "0x53e9621f8eda6b5d2f5576d04f16a490a2fa70650290b8d1af7e7bef7658f2e0",
          "blockNumber": "0x194c54a",
          "transactionHash": "0x03aefb38bbaa5e9e80b02c73dbcd27844bed30ec58644b93367bba17a221fae9",
          "transactionIndex": "0x5",
          "logIndex": "0xb",
          "removed": false
        },
        {
          "address": "0x0000000000000000000000000000000000001010",
          "topics": [
            "0x4dfe1bbbcf077ddc3e01291eea2d5c70c2b422b415d95645b9adcfd678cb1d63",
            "0x0000000000000000000000000000000000000000000000000000000000001010",
            "0x0000000000000000000000006cfd0753ec4da15dcb418e11e921c0665c1d1cbf",
            "0x0000000000000000000000007ee41d8a25641000661b1ef5e6ae8a00400466b0"
          ],
          "data": "0x000000000000000000000000000000000000000000000000001157e520567fb00000000000000000000000000000000000000000000000054c958b78ae80106700000000000000000000000000000000000000000000010652803bf752748d0f0000000000000000000000000000000000000000000000054c8433938e2990b7000000000000000000000000000000000000000000000106529193dc72cb0cbf",
          "blockHash": "0x53e9621f8eda6b5d2f5576d04f16a490a2fa70650290b8d1af7e7bef7658f2e0",
          "blockNumber": "0x194c54a",
          "transactionHash": "0x03aefb38bbaa5e9e80b02c73dbcd27844bed30ec58644b93367bba17a221fae9",
          "transactionIndex": "0x5",
          "logIndex": "0xc",
          "removed": false
        }
      ],
      "logsBloom": "0x00000000008000000000040000000200000000000000000000000000000000000000000000000000000000010000000000008000000000000000000000000000000000000000000000000000000000800000000000000000000100000000000000000000000000000000000000000000000000000000000080000000000000000001000000000000020000000400000000000000000100000000000000000000200000000000000000000000000000000000000000000000000040000000004000000100000000000001000000000000010000400000000000300000000000400000040000000000000000000000000000000000000000000000000000100000",
      "type": "0x2",
      "transactionHash": "0x03aefb38bbaa5e9e80b02c73dbcd27844bed30ec58644b93367bba17a221fae9",
      "transactionIndex": "0x5",
      "blockHash": "0x53e9621f8eda6b5d2f5576d04f16a490a2fa70650290b8d1af7e7bef7658f2e0",
      "blockNumber": "0x194c54a",
      "gasUsed": "0x22517",
      "effectiveGasPrice": "0x815feac0f",
      "from": "0x6cfd0753ec4da15dcb418e11e921c0665c1d1cbf",
      "to": "0xc142ab6b4688b7b81cb4cc8b305f517bba3bfd25",
      "contractAddress": null
    },
    {
      "status": "0x1",
      "cumulativeGasUsed": "0x347f38",
      "logs": [
        {
          "address": "0xc142ab6b4688b7b81cb4cc8b305f517bba3bfd25",
          "topics": [
            "0x7d648d3c718d609c93c086fd770653e10a64c5afe41e0b1b0b4bb76bba24c479",
            "0x5479706553637269707400000000000000000000000000000000000000000000",
            "0x0000000000000000000000006cfd0753ec4da15dcb418e11e921c0665c1d1cbf"
          ],
          "data": "0x4b6e6f7720686f7720746f20636f646520696e20547970655363726970740000",
          "blockHash": "0x53e9621f8eda6b5d2f5576d04f16a490a2fa70650290b8d1af7e7bef7658f2e0",
          "blockNumber": "0x194c54a",
          "transactionHash": "0x876454e34990e4c6a0e33c99b3d12bbde417f2ac81f77b86238deecfa570b697",
          "transactionIndex": "0x6",
          "logIndex": "0xd",
          "removed": false
        },
        {
          "address": "0x0000000000000000000000000000000000001010",
          "topics": [
            "0x4dfe1bbbcf077ddc3e01291eea2d5c70c2b422b415d95645b9adcfd678cb1d63",
            "0x0000000000000000000000000000000000000000000000000000000000001010",
            "0x0000000000000000000000006cfd0753ec4da15dcb418e11e921c0665c1d1cbf",
            "0x0000000000000000000000007ee41d8a25641000661b1ef5e6ae8a00400466b0"
          ],
          "data": "0x000000000000000000000000000000000000000000000000001159694016b6b00000000000000000000000000000000000000000000000054c8433938da2700e000000000000000000000000000000000000000000000106529193dc72cb0cbf0000000000000000000000000000000000000000000000054c72da2a4d8bb95e00000000000000000000000000000000000000000000010652a2ed45b2e1c36f",
          "blockHash": "0x53e9621f8eda6b5d2f5576d04f16a490a2fa70650290b8d1af7e7bef7658f2e0",
          "blockNumber": "0x194c54a",
          "transactionHash": "0x876454e34990e4c6a0e33c99b3d12bbde417f2ac81f77b86238deecfa570b697",
          "transactionIndex": "0x6",
          "logIndex": "0xe",
          "removed": false
        }
      ],
      "logsBloom": "0x00000000000000000000040000000200000000000000000000000000000000000000000000000000000000010000000000008000000000000000000000000000000000000000000000000000000001800000000000000000000100000000000000000000000000000000000000000000002000000000000080000000000000000001000000000000020000000400000000000000000100000000000000000000200000000000000000000000000000000000000000000000000000000000004000000100000000000001000000000000010000400000004000300000000000400000000000000000000000000000000000000000000000000000000000100000",
      "type": "0x2",
      "transactionHash": "0x876454e34990e4c6a0e33c99b3d12bbde417f2ac81f77b86238deecfa570b697",
      "transactionIndex": "0x6",
      "blockHash": "0x53e9621f8eda6b5d2f5576d04f16a490a2fa70650290b8d1af7e7bef7658f2e0",
      "blockNumber": "0x194c54a",
      "gasUsed": "0x22547",
      "effectiveGasPrice": "0x815feac0f",
      "from": "0x6cfd0753ec4da15dcb418e11e921c0665c1d1cbf",
      "to": "0xc142ab6b4688b7b81cb4cc8b305f517bba3bfd25",
      "contractAddress": null
    },
    {
      "status": "0x1",
      "cumulativeGasUsed": "0x396f2e",
      "logs": [
        {
          "address": "0xb101275a60d8bfb14529c421899ad7ca1ae5b5fc",
          "topics": [
            "0x8bf46bf4cfd674fa735a3d63ec1c9ad4153f033c290341f3a588b75685141b35",
            "0x0000000000000000000000006cfd0753ec4da15dcb418e11e921c0665c1d1cbf",
            "0x0000000000000000000000006cfd0753ec4da15dcb418e11e921c0665c1d1cbf",
            "0xb167f07504166f717f2a2710dbcfbfdf8fad6e8c6128c1a7fa80768f61b1d0b2"
          ],
          "data": "0x2d9db08cc57badf02d1ef2136cf4f37a401680ae71ff07756d37b2a7df89a24f",
          "blockHash": "0x53e9621f8eda6b5d2f5576d04f16a490a2fa70650290b8d1af7e7bef7658f2e0",
          "blockNumber": "0x194c54a",
          "transactionHash": "0x27a8cfd0d315979d620c5145bee8dd32b6069d28b03b840aafb19786e2367243",
          "transactionIndex": "0x7",
          "logIndex": "0xf",
          "removed": false
        },
        {
          "address": "0x5db978bc69e54250f577ed343273508baea136cd",
          "topics": [
            "0xddf252ad1be2c89b69c2b068fc378daa952ba7f163c4a11628f55a4df523b3ef",
            "0x0000000000000000000000000000000000000000000000000000000000000000",
            "0x0000000000000000000000006cfd0753ec4da15dcb418e11e921c0665c1d1cbf"
          ],
          "data": "0x0000000000000000000000000000000000000000000000008ac7230489e80000",
          "blockHash": "0x53e9621f8eda6b5d2f5576d04f16a490a2fa70650290b8d1af7e7bef7658f2e0",
          "blockNumber": "0x194c54a",
          "transactionHash": "0x27a8cfd0d315979d620c5145bee8dd32b6069d28b03b840aafb19786e2367243",
          "transactionIndex": "0x7",
          "logIndex": "0x10",
          "removed": false
        },
        {
          "address": "0x0000000000000000000000000000000000001010",
          "topics": [
            "0x4dfe1bbbcf077ddc3e01291eea2d5c70c2b422b415d95645b9adcfd678cb1d63",
            "0x0000000000000000000000000000000000000000000000000000000000001010",
            "0x0000000000000000000000006cfd0753ec4da15dcb418e11e921c0665c1d1cbf",
            "0x0000000000000000000000007ee41d8a25641000661b1ef5e6ae8a00400466b0"
          ],
          "data": "0x0000000000000000000000000000000000000000000000000027ec48946049e00000000000000000000000000000000000000000000000054c72da2a4d048ce500000000000000000000000000000000000000000000010652a2ed45b2e1c36f0000000000000000000000000000000000000000000000054c4aede1b8a4430500000000000000000000000000000000000000000000010652cad98e47420d4f",
          "blockHash": "0x53e9621f8eda6b5d2f5576d04f16a490a2fa70650290b8d1af7e7bef7658f2e0",
          "blockNumber": "0x194c54a",
          "transactionHash": "0x27a8cfd0d315979d620c5145bee8dd32b6069d28b03b840aafb19786e2367243",
          "transactionIndex": "0x7",
          "logIndex": "0x11",
          "removed": false
        }
      ],
      "logsBloom": "0x00000000000000000000000040000000000000000000000000000000000808000000000000100000000000010000000000008000000000100000000000000000000000000000000000000009000000800000000000000000000100000000000000000000020000000000000000000800020000000000000080000010000000000000000000000000020000000400000000000000000100000000000000000000200000000000000000000000000000000000010010000000000000000000004000000002000000000001000000000000000000400004000000300000000020000000000000000000000000000000002000000000000000000000000000100004",
      "type": "0x2",
      "transactionHash": "0x27a8cfd0d315979d620c5145bee8dd32b6069d28b03b840aafb19786e2367243",
      "transactionIndex": "0x7",
      "blockHash": "0x53e9621f8eda6b5d2f5576d04f16a490a2fa70650290b8d1af7e7bef7658f2e0",
      "blockNumber": "0x194c54a",
      "gasUsed": "0x4eff6",
      "effectiveGasPrice": "0x815feac0f",
      "from": "0x6cfd0753ec4da15dcb418e11e921c0665c1d1cbf",
      "to": "0xb101275a60d8bfb14529c421899ad7ca1ae5b5fc",
      "contractAddress": null
    }
  ],
  "libraries": [],
  "pending": [],
  "returns": {},
  "timestamp": 1758111667672,
  "chain": 80002,
  "commit": "bd13895"
}